:100000000C94D6020C941D030C941D030C949C2399
:100010000C941D030C941D030C941D030C941D03E0
:100020000C941D030C941D030C94042B0C94D62BE0
:100030000C9465260C941D030C941D030C941D0355
:100040000C941D030C941D030C941D030C941D03B0
:100050000C941D030C94DA260C941D030C941D03C0
:100060000C941D030C941D030C941D030C941D0390
:100070000C941D030C941D030C941D030C941D0380
:100080000C941D030C941D030C941D030C941D0370
:100090000C941D030C941D030C941D030C941D0360
:1000A0000C941D030C941D030C941D0313051305E0
:1000B00045054505AD068C05AD06AD0697052C0634
:1000C0003D063D069D06AD06AD06A606450745075D
:1000D000570757074E07570757075707450745075D
:1000E0005307570757075307432C6A2C622D6A2C76
:1000F000622DB62CD92C622D302D3F2D14001A0004
:10010000090013000A00040015681664174307006D
:100110001D001B0006001900050000000000E000A3
:1001200002512C0033001C0018000F000D001200BB
:100130000C68086411440B003800370036001000CA
:100140000E000000000028000151E1001E001F0009
:100150002000210022002900E300E200000000004E
:10016000000035000000000000000000000000005A
:100170000000000027002600250024002300300096
:100180002F002E002D000000340031000000000080
:100190000000000000000000000000001E021F021E
:1001A0002002210222022900E300E20000000000F8
:1001B00039003502000000000000000000000000CF
:1001C000000000002702260225022402230230023A
:1001D0002F022E022D020000340231020000000026
:1001E0000000000000004C0000002A000000000099
:1001F00000000000000000000000000000000000FF
:100200000000000000000000000000000000E0000E
:1002100000002C00000000004B004A00000000001D
:100220004F0052005100500000002B004E004D00C6
:1002300000000000000028000000E10000000000B5
:100240000000000000000000EF00ED00EE00F000F4
:10025000000000000000000000000000000000009E
:10026000F100F200000000000000000000000000AB
:10027000000000000000000000000000000000007E
:1002800000000000000000000000000000047F3FAC
:100290001F643214643214783C1E1E140A05222393
:1002A000252628292A2C2D2F3032333536383A3B53
:1002B0003D3E4042434547494A4C4E5051535557A5
:1002C000595A5C5E6062646668696B6D6F717375C4
:1002D00077797B7D7F81838587898A8C8E909294C4
:1002E00096989A9C9E9FA1A3A5A7A8AAACAEAFB1D1
:1002F000B3B4B6B8B9BBBCBEBFC1C2C3C5C6C7C91B
:10030000CACBCCCDCED0D1D2D2D3D4D5D6D7D7D8D4
:10031000D9D9DADADBDBDBDCDCDCDCDCDDDDDDDD26
:10032000DCDCDCDCDCDBDBDBDADAD9D9D8D7D7D62E
:10033000D5D4D3D2D2D1D0CECDCCCBCAC9C7C6C5E5
:10034000C3C2C1BFBEBCBBB9B8B6B4B3B1AFAEAC2B
:10035000AAA8A7A5A3A19F9E9C9A98969492908ED6
:100360008C8A89878583817F7D7B79777573716FAF
:100370006D6B6968666462605E5C5A59575553518B
:10038000504E4C4A4947454342403E3D3B3A383641
:10039000353332302F2D2C2A292826252322FFAA57
:1003A0007F5540000101010101010101010202022A
:1003B0000202020202020303030303030303040411
:1003C00004040404040505050505060606060607DB
:1003D0000707070708080808090909090A0A0A0B94
:1003E0000B0B0C0C0C0D0D0D0E0E0E0F0F0F101035
:1003F00011111112121313141415151616171718BC
:100400001819191A1A1B1B1C1D1D1E1E1F20202126
:100410002222232424252626272829292A2B2C2D6D
:100420002D2E2F30313232333435363738393A3B8E
:100430003C3D3E3F404142434445464748494A4C83
:100440004D4E4F50515354555658595A5B5D5E5F4F
:10045000616264656668696B6C6D6F7072737577E5
:10046000787A7B7D7E8082838587888A8C8E8F9147
:10047000939596989A9C9EA0A2A3A5A7A9ABADAF71
:10048000B1B3B5B7BABCBEC0C2C4C6C9CBCDCFD15B
:10049000D4D6D8DBDDDFE2E4E7E9EBEEF0F3F5F804
:1004A000FAFDFF12036D006900630072006F0064C3
:1004B000006F0078000000180342006F00610072B6
:1004C00000640073006F0075007200630065000037
:1004D000000403090409023B00020100A0FA090418
:1004E0000000010301010009211101000122400067
:1004F0000705810308000A09040100010300000048
:100500000921110100012249000705820320000A88
:100510001201000200000008E0F7120400000102CE
:10052000000105010902A10185020901A1000509D7
:100530001901290815002501950875018102050199
:10054000093009311581257F950275088106093822
:100550001581257F950175088106050C0A3802155D
:1005600081257F950175088106C0C005010906A196
:1005700001050719E029E715002501950875018196
:10058000029501750881010507190029FF1500264C
:10059000FF009506750881000508190129059505D4
:1005A00075019102950175039101C00011241FBED0
:1005B000CFEFDAE0DEBFCDBF04B603FE27C08091E7
:1005C000B3029091B402A091B502B091B602873007
:1005D000904BA740B04BD1F41092B3021092B402EA
:1005E0001092B5021092B60214BE84B7877F84BF02
:1005F0000FB6F894A89580916000886180936000A0
:10060000109260000FBEE0E0F8E3099511E0A0E071
:10061000B1E0E0E6FDE502C005900D92A638B10715
:10062000D9F722E0A6E8B1E001C01D92A33BB207D2
:10063000E1F70E94F5150C94AE2E0C94000081E0B9
:10064000089581E008950C94210308950C942503E6
:100650001F93CF93DF9300D000D01F92CDB7DEB7AA
:1006600049835A836B833091880189819A81311142
:1006700014C0662359F0222349F00E94EB08182F7A
:10068000682F89819A810E94920803C00E94BE0847
:10069000182F69817A81812F04C00E94EB0869813B
:1006A0007A810F900F900F900F900F90DF91CF9164
:1006B0001F910C94780FFC01262F4081518162819B
:1006C000738184810C94280381E00895CF93DF9394
:1006D000EC0160E00E945B03BE01DF91CF910C94BE
:1006E00026030E9474110E94E9030C94AE110C942D
:1006F000AA1108950E9433070E9479032FEF84E323
:100700009CE0215080409040E1F700C000000C9434
:1007100000270F931F93CF93DF938C0161E00E941A
:100720005B03EC01B8010E942303882309F444C051
:10073000B801CE010E9444218823F1F1B801CE0115
:100740000E9496218823C1F1B801CE010E94C822DF
:10075000882391F1B801CE010E94BF1F882361F167
:10076000F8018281882309F1CB358DE5D807C1F0E6
:1007700050F4C115FCE5DF0781F0CF3DDC45A9F45D
:100780000E94800E19C0CC35EDE5DE0761F0CD3555
:10079000DD4559F40E940A0D08C00E947A030CC07E
:1007A0000E94130D02C00E94160DC801DF91CF9167
:1007B0001F910F910C941F0380E0DF91CF911F9147
:1007C0000F91089508950C94E20381E008950C942C
:1007D000E5030895CF93C82F0E94E3038C2F0E9456
:1007E000E703CF910895CF93DF93CDB7DEB72B9773
:1007F0000FB6F894DEBF0FBECDBF4F835887698711
:100800007A878B8761110E94390D9E012F5F3F4FC0
:1008100086E0F90111928A95E9F785E0FE013796A5
:10082000D90101900D928A95E1F789819A814C81D5
:100830005D81452B31F09F3F31F491E08F3F19F4FA
:1008400003C091E001C090E090FF09C049815A8146
:100850006B817C818D819E810E94390C05C0C9010C
:100860000E9464038111F2CF2B960FB6F894DEBF7D
:100870000FBECDBFDF91CF910895FC0180819181A2
:100880000E942D090895CF938823B1F1C82F8CEFD2
:100890008C0F813AD0F46C2F80910001909101016E
:1008A0000E948425882349F06C2F8091000190914B
:1008B00001010E94BC250E946B0D6C2F80910001EC
:1008C000909101010E94BA250CC080E28C0F883003
:1008D00058F4C77081E001C0880FCA95EAF70E94FA
:1008E0001C0DCF910C946B0DCD3E30F08C2F0E94DF
:1008F0008216CF910C945417CF910895882389F1D3
:100900009CEF980F913A40F4682F809100019091EC
:1009100001010E94BC250DC090E2980F983058F458
:10092000877091E001C0990F8A95EAF7892F0E949C
:10093000220D0C946B0D9BE5980F933020F480E012
:1009400090E00C944C2598E5980F973120F480E0C6
:1009500090E00C9462258D3E20F00E94DD160C94F0
:10096000541708951F93CF93DF93182FEB010E9424
:100970004304209741F08FE99FE00197F1F700C011
:1009800000002197F6CF812FDF91CF911F910C941A
:100990007E04893319F060E070E002C060E570E029
:1009A0000C94B204882321F00E941C0D0C946B0D52
:1009B0000895882321F00E94220D0C946B0D089558
:1009C000CF92DF92EF92FF920F931F93CF93DF931B
:1009D0007C01062FC72FFC011281D581D295DF70D3
:1009E0000E94F10C882399F0112389F08C2F807FCD
:1009F000803421F080E2800F883048F082E00E944D
:100A0000BB0D0E94F10C91E0D82ED92601C0D12C4B
:100A1000CC2EC2948FE0C8228C2D90E0FC01EA5AC3
:100A2000FF4F0C94002E8C2F807FCF70882311F005
:100A3000C295C07F112399F0CC2309F469C180E2EB
:100A4000800F883010F0011104C08C2F0E941C0D03
:100A500003C08C2F0E942C0D0E946B0D59C1802F5A
:100A60000E947E04CC2309F478C180E2800F883094
:100A700010F0011104C08C2F0E94220D03C08C2F96
:100A80000E94320D0E946B0D68C18C2F807FCF7049
:100A9000803211F0C295C07F002319F00130C9F0F7
:100AA00025C0112371F0DD2341F0D13031F40E94D3
:100AB0004C0D8C2B0E94540D50C10E944C0D8C2B60
:100AC0000EC0DD2319F0D13009F447C10E94610D39
:100AD0001FC0112339F0D63008F03FC18C2F0E947F
:100AE000D2043BC1D53008F038C112C0112319F02F
:100AF000DD23A1F30DC1DD2359F0093309F019C13C
:100B0000FFEF27EE83E0F15020408040E1F70FC176
:100B10008C2F0E94D90421C1802F112319F00E942B
:100B2000821602C00E94DD160E9454171EC18C2F2F
:100B3000837009F045C0111114C1402F42954695AC
:100B40004770440F440F602F6F70862F90E0A0E035
:100B5000B0E0042E04C0880F991FAA1FBB1F0A947F
:100B6000D2F704FF10C00FE010E020E030E004C036
:100B7000000F111F221F331F4A95D2F700951095C1
:100B80002095309503C000E010E09801C695C69509
:100B9000C370BC01CD01602B712B822B932BC23013
:100BA00049F058F4C13019F00E94A807DAC00E9439
:100BB0009607D7C00E94BA07D4C00E949407D1C03C
:100BC000112319F08C2F817001C08695882309F4B8
:100BD000C8C0402F429546954770440F440F602F80
:100BE0006F70862F90E0A0E0B0E0042E04C0880F64
:100BF000991FAA1FBB1F0A94D2F704FF10C00FE071
:100C000010E020E030E004C0000F111F221F331F4E
:100C10004A95D2F7009510952095309503C000E0D5
:100C200010E09801C695C695C370BC01CD01602B3C
:100C3000712B822B932BC23049F058F4C13019F03C
:100C40000E946D088EC00E945B088BC00E947F08C6
:100C500088C00E94CE0785C0CF70112339F08C2F39
:100C60000E94F407802F0E94D2047BC0802F0E9434
:100C7000D9048C2F0E94150874C0023F01F128F49A
:100C8000003F41F0013FA1F03FC0033FF9F0043FB6
:100C900039F13AC0112341F0D53008F05EC08C2FF5
:100CA0008F710E943A0859C0D63008F056C0F7CF6D
:100CB000112339F08C2F8F710E94F4074EC011233D
:100CC000C9F38C2F8F710E94150847C0112329F09A
:100CD0008C2F8F710E94DF0740C00E94DA073DC051
:100CE000112349F0CF718C2F0E94F40763E08C2F01
:100CF0000E94A00D32C081E00E94BB0DD23068F18D
:100D000082E00E94BB0D29C0112331F0DD2391F256
:100D1000802F0E94430421C0DD2399F2093349F456
:100D20009FEFE7EEF3E09150E040F040E1F700C0C4
:100D30000000802F0E947E0410C04C2F4F70602F47
:100D4000C7010E94740F0E945B090FC04C2F4F70A7
:100D5000602FC7010E94770F08C088EF8C0D843088
:100D600020F40E9420250E94EA03DD20C9F00E94A1
:100D7000ED0C80FD15C0F70112820E94E70C0E9465
:100D8000F407C7010E94F1060E94E70CDF91CF91A2
:100D90001F910F91FF90EF90DF90CF900C9415086A
:100DA000DF91CF911F910F91FF90EF90DF90CF9047
:100DB00008950F931F93CF93DF93EC01688179819E
:100DC0008A810E9438098C010E9491080E94820742
:100DD000B801CE010E94E004DF91CF911F910F91E5
:100DE0000895CF93DF93EC01988189812B813C8119
:100DF000232B31F08F3F31F481E09F3F19F403C082
:100E000081E001C080E080FD19C0CE010E9489030D
:100E100081110CC00E94F10C882381F08A81882303
:100E200069F082E0DF91CF910C94BB0DCE010E945E
:100E3000D906CE01DF91CF910C946603DF91CF915B
:100E400008950E94390D0E94490D0E946B0D0E9469
:100E500085180C94541780910001909101010E9413
:100E6000BE250C9421070E94290D0C942B07E92F15
:100E7000E295EF704E2F50E0FA013297EE30F10517
:100E8000B0F4EA59FF4F0C94002E803F91F018F413
:100E9000883E68F40EC0843F51F40BC0883E48F091
:100EA000813F29F406C093FB882780F9089580E0EC
:100EB000089581E00895FC01808191810E942D09AF
:100EC0000E9437070895CF93DF9300D000D01F9280
:100ED000CDB7DEB70F900F900F900F900F90DF916E
:100EE000CF910895CF93DF9300D000D000D0CDB73D
:100EF000DEB726960FB6F894DEBF0FBECDBFDF91EA
:100F0000CF910895089508950C9483070C94840755
:100F10000E9486076093A6017093A7018093A801A1
:100F20009093A9010C9421070C9488070F931F93A9
:100F30000091A6011091A7012091A8013091A9016B
:100F4000602B712B822B932B1F910F910C94880790
:100F50000F931F930091A6011091A7012091A80162
:100F60003091A90160237123822393231F910F9154
:100F70000C9488070F931F930091A6011091A7016D
:100F80002091A8013091A90160277127822793271A
:100F90001F910F910C9488070C9483070E94CC0733
:100FA0006093A2017093A3018093A4019093A50183
:100FB0000C94210760E070E0CB010C94CE070F93F6
:100FC0001F9341E050E060E070E08A019B0104C0A3
:100FD000000F111F221F331F8A95D2F7C901B801D4
:100FE0001F910F910C94CE070F931F9341E050E097
:100FF00060E070E004C0440F551F661F771F8A959C
:10100000D2F78091A2019091A301A091A401B09187
:10101000A5018A019B01082B192B2A2B3B2BC90107
:10102000B8011F910F910C94CE070F931F9341E0CD
:1010300050E060E070E004C0440F551F661F771F4A
:101040008A95D2F740955095609570958091A20150
:101050009091A301A091A401B091A5018A019B01E7
:10106000082319232A233B23C901B8011F910F919B
:101070000C94CE070F931F9341E050E060E070E0C6
:1010800004C0440F551F661F771F8A95D2F78091C1
:10109000A2019091A301A091A401B091A5018A01A0
:1010A0009B01082719272A273B27C901B8011F914F
:1010B0000F910C94CE070F931F930091A2011091F2
:1010C000A3012091A4013091A501602B712B822BEB
:1010D000932B1F910F910C94CE070F931F930091A8
:1010E000A2011091A3012091A4013091A5016023D8
:1010F0007123822393231F910F910C94CE070F939A
:101100001F930091A2011091A3012091A40130919D
:10111000A50160277127822793271F910F910C94B7
:10112000CE07089524E0929F900D1124890FE82F97
:10113000E695E695E695877051E001C0550F8A95D2
:10114000EAF785E0E89FF0011124E757FE4F20E021
:1011500030E070E04081CB01022E02C09695879569
:101160000A94E2F7817081958427852384278193EF
:101170002F5F3F4F2530310569F7089524E0929F96
:10118000900D1124890F682F669566956695982FA6
:10119000977085E0689FB001112440E050E080E046
:1011A000FB01E40FF51FE757FE4F208130E0092EC9
:1011B00002C0369527950A94E2F721703327042E52
:1011C00001C0220F0A94EAF7822B4F5F5F4F453030
:1011D000510531F70895BF92CF92DF92EF92FF92BF
:1011E0000F931F93CF93DF938C01C090A201D090F7
:1011F000A301E090A401F090A5018091A601909137
:10120000A701A091A801B091A901C82AD92AEA2A68
:10121000FB2ACFE1D0E0D701C6010C2E04C0B69561
:10122000A795979587950A94D2F780FD04C02197DA
:1012300090F7B12C07C0BC2EB8018C2F0E949510DE
:101240000197A9F38B2DDF91CF911F910F91FF9003
:10125000EF90DF90CF90BF900895CF93DF93EC0194
:101260000E94EB08BE010E949510DF91CF91089576
:101270001F93CF93DF93EB0190918801992321F085
:10128000CB010E942D0913C0882349F0CB010E9495
:10129000EB08182F682FCE010E94920804C0CB01E2
:1012A0000E94BE08182FBE01812F0E949510DF9169
:1012B000CF911F910895EF92FF920F931F93CF93B9
:1012C000DF938C01892B09F46CC0F12CEE24E3949C
:1012D000E8012196F8018491843740F4843008F0C5
:1012E00051C0813081F0823019F15BC0853709F43B
:1012F00044C0A8F19CE7980F903708F052C08F7750
:101300000E947E0441C00E5F1F4FFE01849190E257
:10131000980F983050F48770FE2D01C0FF0F8A950A
:10132000EAF78F2F0E943C0D14C00E9443042DC089
:101330000E5F1F4FFE01849190E2980F983060F489
:101340008770FE2D01C0FF0F8A95EAF78F2F0E944C
:10135000420D0E946B0D19C00E947E0416C00E5FE4
:101360001F4FFE01C491CC2381F08FE99FE00197CC
:10137000F1F700C00000C150F6CF0E5F1F4FFE0115
:10138000F49003C00E9443048E018F2D882309F43A
:101390009FCFEFE9FFE03197F1F700C000008150E7
:1013A000F5CFDF91CF911F910F91FF90EF900895AE
:1013B0001F93CF93DF93C091AA0116E08091AB01F8
:1013C000C81799F0D0E01C9FF0011D9FF00D11246B
:1013D000E455FE4F40815181628173818481958102
:1013E0000E9472072196C770E9CFDF91CF911F91BC
:1013F00008954091DC015091DD016091DE01709112
:10140000DF018091E0019091E1010C9472070F934C
:101410001F93CF93DF938091E10182958F7009F044
:101420005DC08091DE01882309F458C08091AA0133
:101430001091AB016091DC017091DD01C091DF0181
:10144000D091E00191E06F3F09F090E0292F06E094
:10145000811709F443C0209721F07F3F21F030E04D
:1014600003C031E001C0322F90E030FD34C0089F4E
:10147000F001099FF00D1124DF01A455BE4F119614
:101480003C911197371327C03C91361324C0129614
:101490003C91129731111FC013964D915C91149796
:1014A0004C1B5D0B483C5105B0F48091E1018F70FD
:1014B00080618093E101EF54FE4F80818F708061E5
:1014C00080838CED91E00E94F106DF91CF911F9116
:1014D0000F910C94D80901968770BACFDF91CF9104
:1014E0001F910F9108959F92AF92BF92CF92DF927A
:1014F000EF92FF920F931F93CF93DF93CDB7DEB799
:1015000061970FB6F894DEBF0FBECDBF8C0185E0AA
:10151000F801DE011D9601900D928A95E1F7F80120
:10152000E2809091DC016091DD012091DF0130913A
:10153000E0012115310531F06F3F31F481E09F3F2B
:1015400019F403C081E001C080E0F82FF1709F2EF4
:1015500080FD3FC1F80140815181A380B4808CEDB2
:10156000C82E81E0D82EF090DE01F501E21BF30BCE
:10157000FF2009F4D9C08091E101E83CF10508F0B1
:1015800095C0282F207F09F052C0561313C049136D
:1015900011C0FE2CE1100EC08F7080618093E101BC
:1015A0000E94F909C6010E94F1068091E101F8014B
:1015B00085834CC1AB2831F05F3F31F481E04F3F70
:1015C00019F403C081E001C080E080FD03C081E028
:1015D0008E2502C080E090E0F82FF170FF2E80FF92
:1015E0001CC08091AA012091AB0136E0821709F45A
:1015F0000BC190E0389FF001399FF00D1124E455A4
:10160000FE4F6181561306C06081461303C062819C
:10161000E61203C001968770E9CFFE2CEE2009F494
:1016200015C18091E10181608093E10154C056139E
:1016300006C0491304C0E11002C0F80199C0C801F6
:101640000E945B07882361F1EE2051F12091E101B6
:10165000822F82958F7090E0029774F08091DC0168
:101660009091DD0198878F831986BB86AA862C8787
:10167000CE0107960E94F10686E0F801ACEDB1E0DC
:1016800001900D928A95E1F70E94070A0E94F909DC
:101690000AC0561711F1C8010E945B0781112CC0C6
:1016A000C8010E94F106FF24F394D0C0282F207FA8
:1016B00081F77A2DB98AA88A6E2D89890E946307DD
:1016C0008CED91E00E94F10686E0F60111928A9578
:1016D000E9F70E94F909F12CB9C04913DCCFE110F8
:1016E000DACFF8018583C8010E94F10686E0F60191
:1016F00011928A95E9F7AAC0EE2091F22091E101BA
:10170000822F82958F7090E002970CF4B5CF809174
:10171000DC019091DD019A8389831B82BD82AC82BA
:101720002E83CE010196A6CFE83CF10508F044C017
:10173000FE2CEE2009F4B4CF561330C049132EC04E
:101740002091E10120FD21C0822F82958F70482FCA
:1017500050E041155105C9F0F80125834F3051057E
:1017600041F08F5F982F9295907F822F8F70892BF9
:101770008583C8010E94F10686E0F801ACEDB1E076
:1017800001900D928A95E1F73CC086E0F801ACED3E
:10179000B1E001900D928A95E1F758C0C8010E940E
:1017A0005B07811169CF8091E10181608093E10144
:1017B000C8010E94F1064AC07A2DB98AA88A6E2D06
:1017C00089890E94630786E0F60111928A95E9F7FC
:1017D00018C0EE2009F464CFC8010E945B07F82E00
:1017E000882309F45DCF86E0F801ACEDB1E001900B
:1017F0000D928A95E1F78CED91E00E943D040E94E4
:10180000070A0E94F90922C04D875E878D859E8553
:101810000E942D09292F22952F70223028F49F70C5
:1018200039F0811105C00BC0243028F49F7049F4B1
:10183000805E883020F0C8010E94F1069F2CF92CB0
:1018400005C0F8019581907F99F7F9CF8F2D6196AA
:101850000FB6F894DEBF0FBECDBFDF91CF911F91C1
:101860000F91FF90EF90DF90CF90BF90AF909F903F
:1018700008951F93CF93DF93CDB7DEB72C970FB6A4
:10188000F894DEBF0FBECDBF4F83588769877A8734
:101890008B879C87CE0107960E94730A8823D1F01C
:1018A0009F8188852A853B85232B31F08F3F31F43A
:1018B00081E09F3F19F403C081E001C080E080FD1A
:1018C00047C04F81588569857A858B859C850E94A4
:1018D00072073EC086E0FE013796DE011196019048
:1018E0000D928A95E1F7FF81E8856A857B85611510
:1018F000710531F0EF3F31F481E0FF3F19F403C08F
:1019000081E001C080E080FD23C02091AB0130E088
:10191000C9010196877099274091AA0150E0841768
:101920009507F1F1F983EA837D836C8396E0929FBA
:10193000D001939FB00D1124A455BE4FFE013196E6
:1019400001900D929A95E1F78093AB010E94D8091E
:1019500016E08091AA019091AB01891771F1189F4F
:10196000C001112484559E4F0E94730A882329F1D7
:10197000E091AA011E9FF0011124E455FE4F408121
:10198000518162817381848195810E947207809167
:10199000AA0190E00196877099278093AA01D9CF78
:1019A0000E9433071092AB011092AA01ECEDF1E016
:1019B00086E0DF011D928A95E9F72C960FB6F89420
:1019C000DEBF0FBECDBFDF91CF911F9108958091F3
:1019D000E20185958595859508958091E20187704E
:1019E00008959091E201977081E009F480E00895F4
:1019F0009091610292FB222720F9281751F080FB79
:101A000092F99093610280916002909161020C942E
:101A1000FC0D08958091610282FB882780F991E096
:101A200089270C94F80C81E00C94F80C80E00C945D
:101A3000F80C8091EE0108959091EE01892B80932E
:101A4000EE01089580959091EE0189238093EE0137
:101A500008951092EE0108959091ED01892B8093E5
:101A6000ED01089580959091ED0189238093ED011A
:101A700008951092ED0108959091EC01892B8093C7
:101A8000EC01089580959091EC0189238093EC01FD
:101A900008951092EC0108958091E301089508954E
:101AA0000C944F0D0C94500D9091610292FD08C062
:101AB0009091E301981721F08093E3010C94520D6B
:101AC00008958091E301882329F01092E30180E0DA
:101AD0000C94520D0895E0910001F0910101809164
:101AE000EE018083E0910001F091010190818091ED
:101AF000ED01892B8083E0910001F091010190813B
:101B00008091EC01892B80838091E301882381F00F
:101B1000E0910001F09101019081892B80838091F7
:101B20000001909101010E94782581110E94610DB0
:101B300080910001909101010C9433250C944F0D7C
:101B40009091610292FD10C098E0899F900111244C
:101B5000262B2093E2010E94F4078091E2018595F3
:101B6000859585950C949E0D0C94F4071092E201D6
:101B700080E00C949E0D2091E20180958223809359
:101B8000E201982F977041F430E0482F082E000CA6
:101B9000550B2417350721F49091610292FF07C07D
:101BA0008595859585950E9415080C94B60D089528
:101BB00080E090E00E94742E21E0893E9E4F09F063
:101BC00020E0822F089582E090E00C94662E83E05E
:101BD00090E00C94662ECF9384E090E00E94662EF5
:101BE000C82F82E290E00E94662E2C2F30E0A901DF
:101BF000582BCA01CF910895CF93C92F682F84E045
:101C000090E00E947A2E6C2F82E290E0CF910C94AB
:101C10007A2EAB01BC018FE090E00C948C2EAB01CE
:101C2000BC0183E190E00C948C2E60E070E0CB016D
:101C30000C940F0E60E070E0CB010E94090E0C9432
:101C4000150E69EE7EEF80E090E00E94982E60E035
:101C500082E090E00E947A2E60E083E090E00E94B3
:101C60007A2E1092A6011092A7011092A80110924C
:101C7000A90160E084E090E00E947A2E60E082E2B8
:101C800090E00E947A2E60E085E090E00E947A2E3B
:101C900060E086E090E00E947A2E6FEF87E090E0AF
:101CA0000E947A2E40E050E0BA0188E090E00E9465
:101CB0008C2E60E08DE090E00E947A2E40E050E0B3
:101CC000BA0188E190E00E948C2E60E087E190E00C
:101CD0000E947A2E40E050E0BA018CE190E00E9430
:101CE0008C2E60E070E080E290E00E94982E40E050
:101CF00050E0BA0188E190E00E948C2E0C941A0EFC
:101D00000C94210E8EE090E00E94662E91E08111ED
:101D100001C090E0892F0895682F8EE090E00C9428
:101D20007A2E0E94A3266093FC017093FD0180939C
:101D3000FE019093FF016093F8017093F901809385
:101D4000FA019093FB01089585B7806885BF85B738
:101D5000806885BF08950C94561308950C94AD0EB9
:101D60000C94AD0E0C94B00E0C94AD0E0C94B40EFD
:101D70000C94AD0E0E94A40E81E791E10E94112700
:101D80000E94B80E0C94B60E0E94AE0E0C94AD0ECE
:101D90000E948E260E94C5250E9454120E94B920DE
:101DA0000E94AF1E0C94B20E9F92AF92BF92CF9240
:101DB000DF92EF92FF920F931F93CF93DF93CDB7F4
:101DC000DEB72A970FB6F894DEBF0FBECDBF0E94D4
:101DD000C91281110E94910E80EFA82E81E0B82EC9
:101DE00000E010E0902E802F0E949811D82EF5016F
:101DF000C1905F01C826B1F40F5F1F4F0830110575
:101E000089F78FEF89838A831B820E9497268160DE
:101E1000782F9D838C8349815A816B818D810E94AB
:101E2000F3032FC08091000281FD0E949E11E12CDE
:101E3000FF24F3948C2D8F21F1F00E94AB0E8823A8
:101E400099F0EE829F82DF2081E009F480E08887AC
:101E50000E9497268160782F9A8789874E815F81BB
:101E600068858A850E94F303F801E051FE4F808166
:101E7000F826F08206C0E394FF0CF5E0EF12DACF0B
:101E8000BBCF0E94E71E0E9472170E9420259091EE
:101E9000EF018917B9F00E9420258093EF012A965F
:101EA0000FB6F894DEBF0FBECDBFDF91CF911F916B
:101EB0000F91FF90EF90DF90CF90BF90AF909F90E9
:101EC0000C94EA032A960FB6F894DEBF0FBECDBF7E
:101ED000DF91CF911F910F91FF90EF90DF90CF9006
:101EE000BF90AF909F90089580E090E0089508958E
:101EF00028E2829FC0011124FC0125E0729FE00DC1
:101F0000F11D1124E60FF11DEE0FFF1FE450FF4FEE
:101F1000859194910895880F991FFC01E457FD4F16
:101F2000859194910895CF93DF930E949A10EC01CC
:101F3000811521E59207B8F5811540E5940708F071
:101F40008AC08F3F910509F0E0F48D3E910508F0BD
:101F500071C0803E910580F4803C910508F06CC012
:101F60008130910509F463C008F4D8C00497813A20
:101F7000910508F4D6C0D2C0883E910508F4D1C0BE
:101F8000CDC0811550E3950740F4C11580E2D80714
:101F900008F4C7C0CE019F7051C0811520E492079C
:101FA00008F056C04EC0811545E59407A0F4811590
:101FB00054E5950708F096C0C11583E5D80708F0E9
:101FC0007CC0C11522E5D20708F062C09C2F88278B
:101FD000816F906AA7C0811549E5940798F481152F
:101FE00058E5950708F083C0C11586E5D80708F0C5
:101FF00095C08C2F0E942E118F7190E0982F88270A
:10200000906290C081152AE5920708F475C0905639
:102010008115904208F082C08D2F8F710E942E1181
:102020009E01332730628F71A901582B75C081E062
:1020300090E078C0906576C0805C91090E948B0F1B
:1020400071C09927D3FF02C0986C6CC0906C6AC0B5
:102050009F70906A67C0F4E096958795FA95E1F7CE
:10206000282F23703C2F337081E090E002C0880F4E
:10207000991F3A95E2F79C68922B2C2F2F7026958A
:10208000269550E2259F90011124822B932B4AC064
:102090009E012370332781E090E002C0880F991FD2
:1020A0002A95E2F72C2F2695269540E2249F900151
:1020B0001124822B932B9C6835C09E0123703327FB
:1020C00081E090E002C0880F991F2A95E2F72C2F3B
:1020D0002695269550E2259F90011124822B932B63
:1020E0009A6820C0982F8827846F906A1BC0982F09
:1020F0008827806F906A16C08F700E942E119E01F3
:1021000094E0369527959A95E1F72F7030E0322FBD
:1021100022273069A901482BCA0104C080E090E061
:1021200001C0CE01DF91CF9108950E94780F0E94E7
:10213000930F08958238910569F1B0F481339105C8
:1021400009F46DC048F48932910509F463C08A32FC
:10215000910509F469C008958533910509F455C0C6
:1021600089339105B9F00895833E910569F138F4FA
:10217000803E9105B1F0823E910509F10895863EB9
:102180009105A9F1873E9105B9F1843E910509F0C9
:1021900064C023C02091600220FD4FC021FD4DC0CE
:1021A00008958091600280FD44C08091610280FFAB
:1021B00044C08091600284FD42C083EE4DC0809196
:1021C000600282FF38C0F5CF8091600282FD33C08B
:1021D0008091610280FD31C0ECCF8091610281FF6E
:1021E00032C08091600284FD2AC087EE35C08091A4
:1021F000600283FF26C0F5CF8091600283FD21C07D
:102200008091610281FD1FC0ECCF8091600285FD4D
:102210001CC01DC08091600285FD19C016C0809150
:10222000600286FD16C017C08091600286FD13C053
:1022300010C089E311C082EE0FC080EE0DC080E0B7
:102240000BC086EE09C084EE07C089E205C085E3B5
:1022500003C08AE201C081E390E00895909160029A
:1022600092FF0DC0282F2871283019F4877F8460D1
:1022700006C0282F2471243011F48B7F886093FFCF
:102280000DC0282F2871283119F4877E846106C07B
:10229000282F2471243111F48B7E886120916102F2
:1022A00020FF0DC0382F3871383019F4877F8160D6
:1022B00006C0382F3171313011F48E7F886021FFD4
:1022C0000DC0282F2871283119F4877E816106C03E
:1022D000282F2171213111F48E7E886194FD877E33
:1022E000089580E0089508950E94D80D811102C0DC
:1022F0000E94800E0E94E30D809300020E94EB0D6D
:1023000090936102809360020E9473110E94E70D16
:10231000682F70E080E090E00E9494076091A20135
:102320007091A3018091A4019091A5010C94CC0718
:10233000E82FF0E0E659FD4F80810895089580EA86
:102340008A95F1F7089500C008950C949F1108959F
:102350000C94A7110C94A8110C94A7110C94AC1117
:10236000F894E82FE295EF70F0E031A1282F2F705C
:1023700081E090E001C0880F2A95EAF7982F9095A8
:10238000932391A392A1892B82A378940895089511
:102390000C94C7110F931F93CF93DF93C6E5D1E041
:1023A00089918F3F11F00E94B01181E0CA35D807A2
:1023B000B9F7C1E5D1E006E511E089918F3F11F051
:1023C0000E94B0110C171D07C1F7DF91CF911F912B
:1023D0000F910895CF92DF92EF92FF920F931F9388
:1023E000CF93DF938C01C62FD0E0CE018A5A9E4F47
:1023F0007C01FC0190819F3F09F44DC0D62EF894DA
:10240000E92FE295EF70F0E081A19F7021E030E0CC
:1024100001C0220F9A95EAF7822B81A382A1209511
:10242000282322A378940E94A311E1E5F1E020E0A3
:1024300030E0C12C51E041914F3FB1F0A42FA29563
:10244000AF70B0E090968C9190E04F7002C095957F
:1024500087954A95E2F780FD07C0852F022E01C0BF
:10246000880F0A94EAF701C080E0C82A2F5F3F4F27
:102470002530310501F7F70180818F3F11F00E946F
:10248000B01161E0C11001C060E08D2D0E94A51166
:10249000C00FD11FC882DF91CF911F910F91FF9084
:1024A000EF90DF90CF9008950E946E13809102010B
:1024B00080910201811102C094E001C090E09093EC
:1024C000730284E0891B809372020E94CA11E2E6C3
:1024D000F2E0AAE6B2E011921D9282E0EA36F80735
:1024E000D1F784E00E941D130E9471030C948213A3
:1024F0001F93CF93DF9300D000D0CDB7DEB70E94FB
:10250000561360917302882371F119821A821B821B
:102510001C82862F90E0BE016F5F7F4F86599D4FD2
:102520000E949013E09172029E012B5F3F4FF0E0FA
:10253000E659FD4FDE011196882361F010E08D9180
:102540009081981711F0808311E03196A217B3079C
:10255000B1F706C011921D92A217B307D9F711E087
:102560000E9477030DC070E066597D4F8091720222
:1025700090E086599D4F0E9420140E94C81110E0DF
:10258000812F0F900F900F900F90DF91CF911F919F
:102590000895EF92FF920F931F93CF93DF93CDB7E0
:1025A000DEB728970FB6F894DEBF0FBECDBF8E0101
:1025B0000F5F1F4F88E0F80111928A95E9F7F12C1F
:1025C0006F2DC8010E94EA11F394F4E0FF12F8CFD6
:1025D00048E050E0B80182E692E00E94502E7C0173
:1025E00021E0892B09F420E0E114F10441F088E0B6
:1025F000F801A2E6B2E001900D928A95E1F76091B0
:10260000730270E066597D4F44E082E692E00E94DA
:102610001E13EF2819F40E94781202C081E090E0A6
:1026200028960FB6F894DEBF0FBECDBFDF91CF91D5
:102630001F910F91FF90EF9008950895FF920F93CF
:102640001F93CF93DF938C01F62ED72FC42F222315
:1026500049F081E0809303020E9497269093020242
:1026600080930102809103028823C1F080910102CE
:10267000909102020E94AF26059780F0EF2DFD2F6A
:10268000D8014C2F50E0CD01801B910B841795078A
:102690001CF48D918193F7CF10920302DF91CF91BB
:1026A0001F910F91FF9008950C94820E8091060265
:1026B00081110DC00E949B2D811102C082E001C0DA
:1026C00081E080930602823011F40E94962D81E011
:1026D00090910602913009F080E008950E94541311
:1026E000809302018091020166E0882311F080E06E
:1026F00001C086E00E9428190E94561381110C9493
:10270000C81308950E945613811102C00C94CA1375
:10271000089581E0909107029A3008F080E00895D2
:102720000F931F93CF93DF93EC018B0180910702EE
:102730008A3038F4B801CE010E941E1481111DC0E8
:102740000AC080910402909105020E94AF26843F46
:10275000914080F715C0809107028F3F19F08F5F7D
:1027600080930702809107028A3060F00E949726CA
:10277000909305028093040203C01092070202C0E6
:1027800080E001C081E0DF91CF911F910F9108950A
:102790000C9456230C945923EF92FF920F931F939E
:1027A000CF93DF937901C82F880FDD0B41155105B9
:1027B000A9F08AE08C9FF0018D9FF00D1124ED5F50
:1027C000FE4F83819481885F9D4F228130E04217C4
:1027D000530708F49A01A9010E945D2ECE010E94C0
:1027E0006324892B09F50115110501F18AE08C9FFD
:1027F000F0018D9FF00D1124ED5FFE4F458150E0FB
:102800000417150708F4A8018AE08C9FF0018D9F3A
:10281000F00D1124ED5FFE4F66817781685F7D4F7B
:10282000C7010E945D2E02C080E001C081E0DF91FF
:10283000CF911F910F91FF90EF9008950C948C15FC
:102840000C94B0150F931F93CF93DF9300D000D05B
:10285000CDB7DEB7609125027091260280912702E4
:10286000909128020E94BE2664367105810591056B
:1028700028F10E94EB25DC01CB010296A11DB11DC0
:1028800089839A83AB83BC8300E010E020E030E0D2
:1028900044E050E0BE016F5F7F4F82E00E94CC13A6
:1028A000182F882361F00E94A3266093250270935D
:1028B0002602809327029093280201C011E0812F05
:1028C0000F900F900F900F90DF91CF911F910F916C
:1028D0000895AF92BF92CF92DF92EF92FF920F9343
:1028E0001F93CF93DF937C015B016A010E948913E0
:1028F000811103C001E010E002C00AE010E0C1E075
:10290000D0E0F894B501C701F601099578948111DA
:1029100015C021960C171D0794F0CC9F9001CD9FF8
:10292000300D300D112480E090E045E34A95F1F739
:102930000000019682179307C1F7E3CF81E0DF9192
:10294000CF911F910F91FF90EF90DF90CF90BF90AC
:10295000AF9008950F931F93CF93DF93CDB7DEB75A
:1029600028970FB6F894DEBF0FBECDBFCE010196FB
:102970000E94A21D18856091290270912A028091FF
:102980002B0290912C020E94BE26643671058105AF
:10299000910510F41123D9F000E010E020E030E0C0
:1029A00048E050E0BE016F5F7F4F83E00E94CC1390
:1029B000882359F00E94A3266093290270932A026B
:1029C00080932B0290932C0202C080E003C00E94EF
:1029D0009F1D81E028960FB6F894DEBF0FBECDBFD5
:1029E000DF91CF911F910F910895AF92BF92CF9237
:1029F000DF92EF92FF920F931F93CF93DF9300D05C
:102A000000D01F92CDB7DEB75B01E0905E01F09081
:102A10005F0101E010E09E012B5F3F4F40E050E07E
:102A200060E070E080E00E94CC13182F882309F446
:102A30003EC067018FEFC81AD80A609121027091D9
:102A4000220280912302909124020E94BE266436C5
:102A500071058105910518F104E010E09E012F5FDA
:102A60003F4F40E050E060E070E081E00E94CC1316
:102A7000182F64E070E0C6010E94BA2091E02D8119
:102A8000281390E0192351F10E94A326609321029C
:102A900070932202809323029093240211C064E079
:102AA00070E0C6010E94BA209D818913D5CFF7013D
:102AB00081819281A381B48189839A83AB83BC8312
:102AC000112361F089819A81AB81BC8180931D02C1
:102AD00090931E02A0931F02B093200280911D02CA
:102AE00090911E02A0911F02B0912002F5018083F7
:102AF0009183A283B383812F0F900F900F900F903B
:102B00000F90DF91CF911F910F91FF90EF90DF9089
:102B1000CF90BF90AF9008950F931F93CF93DF9303
:102B2000EC018B0145EF54E10E946914882391F078
:102B300042E254E1B801CE010E946914882351F0A9
:102B40004AEA54E1B801CE01DF91CF911F910F9174
:102B50000C94691480E0DF91CF911F910F9108953B
:102B60000F931F93CF93DF93F894C0915E01D091A0
:102B70005F01CE01019624E0FB01DC0101900D9282
:102B80002A95E1F764E070E00E94BA208883789487
:102B9000F8946D817E818F81988500911902109142
:102BA0001A0220911B0230911C02601771078207E4
:102BB000930751F06093190270931A0280931B02DD
:102BC00090931C020E94CE257894F89488898823DB
:102BD00031F060E0CE0109960E947A1E188A78943E
:102BE000DF91CF911F910F9108950E940F260E94AF
:102BF00041280E945A280E946C280E94C40EFBCFD4
:102C00008091330280FF0BC06091300185E0689FA6
:102C1000B001112475956795759567952BC081FF57
:102C200009C06091300185E0689FB001112475955D
:102C3000679520C082FF07C06091300185E0689FE2
:102C4000B001112417C0909132029923D1F0609104
:102C50002F01961788F72091300185E0289F900179
:102C60001124929FA001939F500D112470E0CA017E
:102C70000E94CA2D6038710540F46115710519F480
:102C800006C065E070E0862F08958FE7089581E023
:102C900008958091330280FF08C060912C0170E09C
:102CA000759567957595679521C081FF06C0609100
:102CB0002C0170E07595679519C082FF04C0609182
:102CC0002C0170E010C090913102992399F060912D
:102CD0002B019617A0F780912C01899FC001112428
:102CE00070E00E94CA2D6038710540F461157105CD
:102CF00019F406C061E070E0862F08958FE708950B
:102D000081E008958D3E21F40E940016819504C053
:102D10008E3E29F40E9400168093370208958F3E5C
:102D200021F40E940016819504C0803F29F40E947E
:102D30000016809336020895893F19F40E944916BF
:102D400005C08A3F31F40E9449168195809338026C
:102D500008958B3F21F40E944916819504C08C3F51
:102D600029F40E9449168093390208959FE0980F34
:102D7000983078F421E030E0A90102C0440F551FDB
:102D80009A95E2F7CA0190913502892B809335021A
:102D900008958D3F21F48091330281600BC08E3FF6
:102DA00021F480913302826005C08F3F29F4809125
:102DB000330284608093330208958D3E39F49091FC
:102DC000370297FF35C01092370259C08E3E29F462
:102DD000909137021916BCF32BC0909136028F3EAA
:102DE00029F497FF25C01092360249C0803F19F49C
:102DF0001916CCF31DC090913802893F29F4191699
:102E0000BCF4109238023BC08A3F19F497FF10C0FF
:102E1000F8CF8B3F39F49091390297FF09C0109297
:102E200039022DC08C3F21F4909139021916BCF360
:102E30009FE0980F983080F421E030E0A90102C0B3
:102E4000440F551F9A95E2F7CA018095909135027B
:102E500089238093350213C08D3F21F48091330282
:102E60008E7F0BC08E3F21F4809133028D7F05C091
:102E70008F3F29F4809133028B7F809333028091BE
:102E80003602811106C080913702811102C0109272
:102E9000320280913802811106C08091390281117D
:102EA00002C01092310208950E94972620913602A6
:102EB000211104C020913702222321F09093300287
:102EC00080932F0220913802211104C020913902F1
:102ED000222321F090932E0280932D0284E392E02E
:102EE0000C943E25EF92FF920F931F93CF93DF93A5
:102EF00000D000D000D0CDB7DEB786E0E4E3F2E04A
:102F0000DE01119601900D928A95E1F7E09036026C
:102F1000F090370200913802109139021092360277
:102F2000109237021092380210923902E11003C059
:102F3000FF2009F45DC080912F02909130020E9421
:102F4000AF26AC0190913202992339F020913101E2
:102F500030E02417350758F04BC0209132018AE049
:102F6000289F900111242417350718F041C09F3F76
:102F700019F09F5F90933202EE2061F00E940016DC
:102F80001E1414F09FEF01C091E0989F902D112422
:102F900090933602FF2061F00E9400161F1414F077
:102FA0009FEF01C091E0989F902D112490933702DC
:102FB000309136023323E1F0209137022223C1F011
:102FC00045EB3403C0011124992319F09093360284
:102FD00003C081E08093360235EB2303C001112446
:102FE000992319F09093370203C081E08093370250
:102FF000011103C0112309F45DC080912D0290914D
:103000002E020E94AF26AC0190913102992339F033
:1030100020912D0130E02417350758F04BC0209146
:103020002E018AE0289F900111242417350718F0FB
:1030300041C09F3F19F09F5F90933102002361F0E0
:103040000E944916101614F09FEF01C091E0989F5E
:10305000902D112490933802112361F00E9449169B
:10306000111614F09FEF01C091E0989F902D11244C
:1030700090933902309138023323E1F020913902E4
:103080002223C1F045EB3403C0011124992319F028
:103090009093380203C081E08093380235EB23031C
:1030A000C0011124992319F09093390203C081E0E3
:1030B000809339028091360281110BC080913702D2
:1030C000811107C080913802811103C080913902BB
:1030D00081110E945417EB82FC820D831E8386E0CF
:1030E000FE013196A4E3B2E001900D928A95E1F7DA
:1030F00026960FB6F894DEBF0FBECDBFDF91CF91FD
:103100001F910F91FF90EF900895E4E3F2E086E0C5
:10311000DF011D928A95E9F7109232021092310276
:10312000109233020895EF92FF920F931F93CF9363
:10313000DF938B01682F11110AC0442329F0E82F77
:10314000F0E0ED55FC4F6491762F862F75C0212F4E
:1031500030E0E82FF0E0442321F0ED55FC4FE491FE
:10316000F0E046E0049FC0011124CFEFD0E0BE01A3
:103170000E94B62D4BEA4603C001479F900D1124D3
:10318000800F911D800F911D982F990F890FAE010F
:10319000421B530B4E9FD0014F9FB00D5E9FB00D51
:1031A00011249B2F189FA0011124452F55278E0114
:1031B000041B150B0E9FA0010F9F500D1E9F500D5D
:1031C00011247E01E81AF108E29E8001E39E100DB1
:1031D000F29E100D1124212F3327C21BD30BCE9F3B
:1031E0009001CF9F300DDE9F300D112462307105AC
:1031F000A9F048F46115710569F061307105C9F4F1
:103200008B2F752F0DC06430710581F058F066303A
:10321000710579F47E2F8B2F932F0DC0832F7B2F79
:103220009E2F09C08E2F7B2F952F05C08E2F732FB9
:1032300002C07E2F852F692FDF91CF911F910F91B3
:10324000FF90EF90089541E00E949318089508952B
:10325000E6E3F1E08083618308950E9423190895D5
:10326000CF93DF93762FE901682F842F0E942D19C9
:10327000798368838A83DF91CF9108958091750265
:10328000282F269530E02115310519F481708260D0
:1032900005C02532310524F0817088648093750261
:1032A000089588E090E00C946E2ECF92DF92EF921A
:1032B000FF926B017C010E943E19B701A60188E0D4
:1032C00090E0FF90EF90DF90CF900C948C2EE5E78C
:1032D000F2E083E0808311828FEF82838383148204
:1032E000A7E4B2E012968C911297836012968C93A9
:1032F00060817181828193810C945519809175024E
:1033000080FF02C08695089580E00895909179022B
:10331000933018F49F5F90937902882351F0609165
:1033200075027091760280917702909178020C94E8
:103330005519089581E00C9486199091790299238A
:1033400019F0915090937902882351F060917502A1
:103350007091760280917702909178020C945519C1
:10336000089581E00C949D1970E00C948E2060917A
:1033700037018091750280FF0AC08091360123E0F9
:10338000829FC001112486589D4F0C94B4198091DE
:10339000380190913901891780F7E82FF0E09F01FB
:1033A000220F331FE20FF31FE658FD4F11821082E8
:1033B00012828F5FF0CF9091750290FF16C09091AE
:1033C000380120913901921770F4E92FF0E0DF0104
:1033D000AA0FBB1FEA0FFB1FE658FD4F81836083D6
:1033E00042839F5FF0CF0C94B7190895CF93DF937A
:1033F00000D01F92CDB7DEB79091750290FF0AC042
:103400009E012F5F3F4F0E9430194B8169818A8155
:103410000E94DB190F900F900F90DF91CF910895CC
:10342000CF93DF93EC01EC81F0E0E256FD4F449145
:10343000E5E7F2E0628181810E94F6198C818F5F5D
:103440008C83DF91CF910895CF93DF93EC01E5E773
:10345000F2E0438162818C810E94F6198C818F5F3A
:103460008C83DF91CF9108950F931F93CF93DF93B8
:1034700000D01F92CDB7DEB78C0180913A02811146
:103480000AC09E012F5F3F4F4FEF6FEF0E94301930
:103490008A8180933A02F8018481813051F028F0CA
:1034A000823061F440913A020AC080913A0240E0D1
:1034B00007C060913A0240E080E003C040E080E055
:1034C00060E00E94DB19F801848190E0019663E0DE
:1034D00070E00E94CA2D84830F900F900F90DF91AF
:1034E000CF911F910F910895AF92BF92CF92DF922B
:1034F000EF92FF920F931F93CF93DF9300D01F9211
:10350000CDB7DEB7182FF62E042FE22E909175025C
:1035100090FF7EC0E92FE695AE2FB0E0A05ABE4FD7
:103520008C91809347029E7F923061F49E012F5FC1
:103530003F4F812F0E9430194B8169818A810E94FF
:10354000DB1943C0823019F4009178023EC0863006
:1035500019F41091760239C08930D9F38931A9F56F
:10356000E9518E2F8170D82EE695F0E0E256FC4F9F
:10357000A590B490C12CBB2460913A01C61618F5F1
:103580002C2D30E0A29EC001A39E900DB29E900D06
:10359000112470E00E94B62D812FD11002C0860F39
:1035A00001C0861B90913801290F311DA901440FDC
:1035B000551F240F351F26583D4F402F6F2D0E9459
:1035C0003019C394D9CF0E94B7198091760218138D
:1035D00008C080917702F81204C080917802081721
:1035E00029F080914902826080934902109376020B
:1035F000F092770200937802EE2051F0609175020C
:103600007091760280917702909178020E9455190C
:103610000F900F900F90DF91CF911F910F91FF901E
:10362000EF90DF90CF90BF90AF900895E5E7F2E084
:103630009181282F4381628188E0890F0C94741A4C
:1036400081E00C94161BE5E7F2E09181282F43817D
:10365000628188EF890F0C94741A81E00C94231B0B
:10366000E5E7F2E0628121E1620F08F46FEF282FB5
:10367000438181810C94741A81E00C94301BE5E73E
:10368000F2E0628121E1621B08F460E0282F4381AF
:1036900081810C94741A81E00C943F1BE5E7F2E001
:1036A000438121E1420F08F44FEF282F628181818D
:1036B0000C94741A81E00C944E1BE5E7F2E0438110
:1036C00021E1421B08F440E0282F628181810C94A3
:1036D000741A81E00C945D1B20E00C94741AFF9224
:1036E0000F931F93CF93DF93EC01F12C0FEF10E0BA
:1036F00060913A01F616F0F4809138012F2D30E0F8
:10370000280F311DC901880F991F280F391F26580E
:103710003D4F70E0C8010E94CA2D962F8C814091C8
:10372000780260917702F99E800D11240E94301971
:10373000F394DECF0E94B7199A818C8190FF02C06A
:103740008F5F01C081508C83DF91CF911F910F91CA
:10375000FF9008958F929F92AF92BF92CF92DF9287
:10376000EF92FF920F931F93CF93DF93EC018A8127
:1037700080FF03C0BB24BA9402C0BB24B3948C81E5
:1037800081110DC081E0B81206C080913A018150CC
:1037900080933C0202C010923C0281E08C83A12CF9
:1037A0004CE0942E80913A01A81608F044C0809114
:1037B0003801CA2CD12C8601080F111DC801880FB1
:1037C000991F080F191F06581D4FF801118210820A
:1037D000128234E0E32EF12C812C80913C02880D82
:1037E0008D302CF0692D0E94A82D892F05C087FFF0
:1037F00003C090913A01890F082E000C990BC8164E
:10380000D90691F4809178028E9DA0018F9D500D74
:1038100011245595479555954795980160917702E4
:10382000809176020E9430198B0CF1E0EF1AF108BA
:10383000A1F6A394B7CF0E94B71980913C0291E002
:10384000B9120EC0811107C080913A018150809356
:103850003C021C820FC0815080933C02BC820AC093
:1038600090E0019660913A0170E00E94CA2D809329
:103870003C028C83DF91CF911F910F91FF90EF90CD
:10388000DF90CF90BF90AF909F908F9008951F933F
:10389000CF93DF93EC018C81811109C081E08C838F
:1038A00010923B0292E09093350180933401809115
:1038B000380190913901891770F4E82FF0E09F01E9
:1038C000220F331FE20FF31FE658FD4F11821082C3
:1038D00012828F5FF0CF10E060913A011617C0F5A9
:1038E000E12FF0E070E0CF010E94CA2D2091380155
:1038F000820F20913B02022E000C330B90E0E21766
:10390000F307CCF020913501022E000C330B2E175B
:103910003F078CF09C01220F331F820F931F9C01E5
:1039200026583D4F4091780260917702809176024F
:103930000E9430190BC0FC01EE0FFF1F8E0F9F1F5E
:10394000FC01E658FD4F1182108212821F5FC4CF26
:103950000E94B7198091340120913B02280F2093D7
:103960003B0290913501980F9093350119165CF444
:10397000022E000C330B40913A0150E041505109A6
:103980002417350734F0819580933401813009F490
:103990001C82DF91CF911F9108958F929F92AF92D9
:1039A000BF92CF92DF92EF92FF920F931F93CF932C
:1039B000DF938C01FC014481C42FD0E09E01DE0125
:1039C0000E940E2E9B01AC010E94242E6B017C01F3
:1039D000E0E2F0E0EC1BFD0BA5E5B0E09B01AC01E3
:1039E0000E94242E4B015C019F01DF010E94062EE4
:1039F0009B01AC010E942F2E9B01AC012C0D3D1DA3
:103A00004E1D5F1DC501B4010E94DE2DC22FD22FB5
:103A10002A3228F4F3E02F9F900111240DC025E5F0
:103A200030E02C1B3109C901880F991F280F391F5D
:103A300037FF02C02F5F3F4F35952795C22FC095A6
:103A4000F12C85E5E82EED1A80913A01F816C8F4BC
:103A5000F1FC02C08E2D01C08D2F909138012F2DC9
:103A600030E0290F311DA901440F551F240F351FC8
:103A700026583D4F4C2F609177020E943019F394E5
:103A8000E3CF0E94B719F8018481811102C091E04F
:103A900003C0803219F49FEF90933301909133016A
:103AA000890FF8018483DF91CF911F910F91FF90CF
:103AB000EF90DF90CF90BF90AF909F908F90089540
:103AC0000F931F93CF93DF93EC0100E010E0809100
:103AD0003A01282F30E00217130724F5909138019E
:103AE0009801290F311DA901440F551F240F351FBF
:103AF00026583D4F869590E04C81081719071CF415
:103B0000442331F002C0411103C04091780201C04A
:103B100040E060917702809176020E9430190F5F39
:103B20001F4FD5CF0E94B7198C8190E0019681700C
:103B300099278C83DF91CF911F910F910895109257
:103B40004902089525E0E5E7F2E0DC0101900D92DD
:103B50002A95E1F7209147023091480240914902AD
:103B6000FC0125833683478308956091750266952D
:103B700070E04BE050E08BE391E00E94432E892BF4
:103B800019F481E0809348020E9406269093410236
:103B90008093400280914902846080934902089595
:103BA000E7E4F2E01182828184608283089590913B
:103BB000750290FF3AC09170811102C0926006C0F8
:103BC000853210F0986402C0880F982B909375028C
:103BD00080914902816080934902662351F060918F
:103BE00075027091760280917702909178020E941E
:103BF000551960917502669570E04BE050E08BE3DB
:103C000091E00E94432E892B19F00E94D01D02C022
:103C10000E94B51D81E0809343024091780260913B
:103C20007702809176020C946C1B0895682F909116
:103C30007502969581E0890F853208F081E00C9439
:103C4000D71D81E00C94161E682F909175029695F1
:103C50008FEF890F09F484E20C94D71D81E00C9456
:103C6000241E61E00C94D71DE5E7F2E080818160BD
:103C7000808386950C94311E60E00C94D71DE5E797
:103C8000F2E080818E7F8083608171818281938167
:103C90000E9455190E94D01DE7E4F2E08281816004
:103CA00082832FEF80E792E0215080409040E1F73F
:103CB00000C000000C94B7198091750280FD0C942F
:103CC0003F1E0C94341EE5E7F2E080818E7F8083F6
:103CD0000E94D01DE7E4F2E08281816082832FEFB1
:103CE00080E792E0215080409040E1F700C0000062
:103CF0000C94B7191F93CF93DF93EC01162F8F818C
:103D000080FF0FC0888180FF0AC0809175028160AA
:103D100080937502888186950E94D71D02C00E94FB
:103D2000631E8F8181FF06C0212F4B816A818981AB
:103D30000E94741A8F8182FF08C08E81882319F037
:103D40000E94B51D02C00E94D01D8F8183FF03C059
:103D500081E080934302DF91CF911F91089580917C
:103D60004602811133C00E94D80D811104C00E9407
:103D7000800E0E9467190E9451196093750270931A
:103D80007602809377029093780280914902836053
:103D9000809349026E7F61F40E9467190E94511955
:103DA0006093750270937602809377029093780205
:103DB0000E943E190E94D01D8091750280FF03C0B1
:103DC00086950E943C1E81E0809346020895EF9202
:103DD000FF920F931F93CF93DF9380914802882324
:103DE00009F4ABC080914702E0917502E695E81BAB
:103DF000E0934202823049F4F0E0E656FD4FE49150
:103E0000CE2FD0E000E11AE149C0863049F4F0E05D
:103E1000E956FD4FE491CE2FD0E004E21AE13EC016
:103E2000893051F4E695F0E0EC56FD4FE491CE2F49
:103E3000D0E00FE61BE132C08F3051F4E695F0E0A0
:103E4000EF56FD4FE491CE2FD0E00AEA1BE126C0E9
:103E5000853149F4F0E0E257FD4FE491CE2FD0E0F8
:103E600007E41CE11BC0883181F0833239F4ECE8AF
:103E7000F2E0C591D49104E31AE110C0843251F408
:103E8000C4EFD1E000E61DE109C0C8E2D0E00DECCE
:103E90001CE104C0C0EDD7E007E219E180914302C4
:103EA000882361F0109243020E94062690934102FB
:103EB0008093400210924502109244020E9406260E
:103EC000E0914002F09141029C012E1B3F0B2F3FDD
:103ED0003F4798F520913F022223B1F010923F0214
:103EE00020913D0230913E02821B930B8F3F9F47F2
:103EF00058F4205D3A4830933E0220933D02809171
:103F00004902886080934902E0904402F0904502A3
:103F1000EC0FFD1FF0934102E093400280E492E039
:103F2000F80109958091440290914502892B29F46A
:103F3000EF2819F081E080933F02DF91CF911F912C
:103F40000F91FF90EF900895882311F0FA0101C0BE
:103F5000FB010994CF93DF93C82FD62F0E947E19BF
:103F60008C1740F00E947E198D1720F4DF91CF91BD
:103F70000C94211E8C2FDF91CF910C94311E1F9336
:103F8000CF93DF93FB0112811111C3C0EC010E949A
:103F9000190D8272CD3CFCE5DF0709F49AC0A8F543
:103FA000C73CECE5DE0709F476C0A8F4C43C9CE508
:103FB000D90709F45FC028F4C33CDC4509F457C0B5
:103FC00054C0C53C9CE5D90709F459C0C63CDC4542
:103FD00009F45CC04AC0CA3CFCE5DF0709F46AC0CA
:103FE00050F4C83CECE5DE0709F45AC0C93CDC4596
:103FF00009F45BC03AC0CB3C9CE5D90709F45FC02B
:10400000CC3CDC4509F460C030C0C23DFCE5DF07B4
:1040100009F46FC088F4CF3C9CE5D90709F460C06F
:1040200008F45CC0C03DFCE5DF0709F45CC0C13D9D
:10403000DC4509F45BC019C0C53D9CE5D90709F40E
:1040400060C050F4C33DFCE5DF0709F455C0C43D32
:10405000DC4509F454C009C0C63D9CE5D90709F404
:1040600055C0CE35DD4509F454C011E052C00E9460
:104070005C1E4FC04EE25EE161E27EE104C041E2BF
:104080005EE16EE27EE10E94A41F43C04DE25BE16F
:1040900060E27BE1F8CF40E25BE16DE27BE1F3CFF0
:1040A0004BE45BE16CE37BE1EECF4CE35BE16BE483
:1040B0007BE1E9CF49E65BE16AE57BE1E4CF4AE5F4
:1040C0005BE169E67BE1DFCF41EB59E16AE979E148
:1040D000DACF4AE959E161EB79E1D5CF81E017C048
:1040E00065E082E010C068E086E00DC06EE089E027
:1040F0000AC064E18FE007C067E185E104C088E1A0
:1041000006C062E289E10E94AA1F03C083E20E9406
:10411000311E812FDF91CF911F910895539A2BB1BA
:10412000277F3BB138604FB7F894FC01CB01880F73
:10413000991F680F791F6E0F7F1FE617F70789F029
:10414000819198E03BB9000000C087FF2BB9880F30
:10415000000000C000C000C02BB900C09A9591F7C4
:10416000ECCF4FBF8FE594E00197F1F700C000005E
:1041700008950895FC01680F791F8FEF91E3E6170A
:10418000F70771F02191822728E030E087FF03C014
:10419000880F892701C0880F21503109B9F7EFCF67
:1041A00008950F931F93CF93DF93C42FD22FFC0159
:1041B00082818823C9F040934C020E9497269093F5
:1041C0004B0280934A0280E28C0F883008F057C07F
:1041D000C77081E001C0880FCA95EAF7DF91CF91DF
:1041E0001F910F910C94D20480914C02481330C05F
:1041F00080914A0290914B020E94AF26883C910523
:1042000038F510E21D0FCD17B9F080E28C0F883021
:1042100040F4C77081E001C0880FCA95EAF70E9498
:10422000D904183028F581E09D2F977001C0880FC0
:104230009A95EAF70E94D204802F0E94C904183090
:10424000F0F4D77081E001C0880FDA95EAF70AC070
:1042500080E28C0F883098F4C77081E001C0880F2D
:10426000CA95EAF7DF91CF911F910F910C94D90471
:10427000802FDF91CF911F910F910C94C904DF9192
:10428000CF911F910F9108950F939C01CB01243F73
:104290004CE5340731F188F4293DFCE53F07D9F0BE
:1042A0002A3D4CE5340779F1283D3C45A9F506E265
:1042B00021EE41EE68ED7CE52BC0263FFCE53F0793
:1042C000E1F0A8F0273F3C4539F507E225EE46EE40
:1042D00067EF7CE51DC007E225EE45EE69ED7CE564
:1042E00017C006E221EE40EE64EF7CE511C007E264
:1042F00025EE44EE65EF7CE50BC006E221EE42EED2
:1043000066EF7CE505C008E221E045EE6AED7CE55C
:104310000E94D12080E008C0FC018281882319F02E
:1043200010924C0201C081E00F910895CF93DF936A
:10433000EC01FB018281882309F426C1C430FDE52C
:10434000DF0760F4CB3F9CE5D90768F49E0122505B
:104350003C452431310508F018C105C0C236EDE5F1
:10436000DE0709F012C10E94EB0D90936102809369
:104370006002C031FCE5DF0709F4CAC008F041C0A3
:10438000C8309CE5D90709F4A4C0F0F4C430FCE5BA
:10439000DF0709F48CC068F4C2309CE5D90709F442
:1043A00082C0C330DC4509F0E5C0809160028260C4
:1043B000DFC0C630FCE5DF0709F483C008F085C024
:1043C000809160028860D4C0CC309CE5D90709F4A4
:1043D00090C068F4CA30FCE5DF0709F47EC008F03D
:1043E00084C00E943307809160028068C1C0CE30D3
:1043F0009CE5D90709F481C008F086C0809160026D
:1044000094C0CD3FFCE5DF0709F47BC038F5C4312B
:104410009CE5D90709F49AC058F4C231FCE5DF07DE
:1044200009F47AC008F07EC0809160028F7BA0C042
:10443000CB3F9CE5D907F1F108F03FC0C531DC4521
:1044400009F098C08091600282FB222720F991E058
:10445000922790FB82F990FB83F98AC0C1308DE5E9
:10446000D80709F467C050F480916102CF3FECE5B2
:10447000DE07C1F108F05BC08D7F65C0C3308DE5FC
:10448000D80709F471C008F46DC0C236DD4509F0E3
:1044900071C08091600284FB222720F991E092276D
:1044A00090FB84F965C080916002816061C0809159
:1044B000600216C08091610216C080916102826024
:1044C00042C080916002806153C08091600280622E
:1044D0004FC08091600280644BC080916002886010
:1044E000846046C0826081602EC0809160028E7FB1
:1044F0003FC0809160028D7F3BC080916002877FCA
:1045000037C08091610214C0809160028F7E30C0FC
:10451000809160028F7D2CC00E94330780916002E1
:104520008F7726C080916002877F8B7F21C08D7F2F
:104530008E7F09C080916102982F909591708E7F37
:10454000892B90FB81F98093610214C00E9433078C
:104550008091600287FB222720F991E0922790FB4F
:1045600087F906C081E001C080E00E948C0E02C085
:104570008093600280916002909161020E94FC0D24
:104580000E94330780E001C081E0DF91CF91089560
:10459000CF93DF9386319C4541F5EB010E94190DC5
:1045A000982F8A812091000130910101882379F0B0
:1045B0009A7A81E009F480E080934D02911102C063
:1045C00069E201C065E3C9010E94BA250AC0809171
:1045D0004D02811102C069E201C065E3C9010E9478
:1045E000BC250E946B0D80E001C081E0DF91CF917E
:1045F00008958EE14A9B02C08150E1F74A9BFECFAD
:1046000008955A9880E28A95F1F75A9A0895FC0124
:104610002AE02A95F1F728E090E080E031E040E1DF
:104620004A95F1F7880F4A9B02C08160932700C02A
:10463000000040E14A95F1F7215089F720E12A95E1
:10464000F1F729B100C0000030E13A95F1F722FB03
:10465000222720F992272081920F90830895EF92CC
:10466000FF920F931F93CF93DF931F92CDB7DEB7C7
:1046700019828C017C01E60EF11C0E151F0551F00C
:104680000E94F922CE0101960E940723F80181932E
:104690008F01F3CF81E09981911180E00F90DF913C
:1046A000CF911F910F91FF90EF900895529A5A9ACF
:1046B000089552985A9AEA9AE9E6F0E080818F7C50
:1046C00080830895615091E001C0990F6A95EAF7DF
:1046D00020E031E0992361F0492F482319F05A9ADC
:1046E000232701C05A9840E24A95F1F79695F2CFF8
:1046F000222311F05A9A01C05A9880E28A95F1F764
:104700005A980895FF920F931F93CF93DF93EC0174
:104710008C01060F111DC017D10741F0F9900E94BE
:10472000012368E08F2D0E946223F5CFDF91CF91A6
:104730001F910F91FF9008951F920F920FB60F9245
:104740001124EF92FF920F931F932F933F934F9358
:104750005F936F937F938F939F93AF93BF93EF93E9
:10476000FF93CF93DF931F92CDB7DEB719820E94DC
:10477000F922CE0101960E940723A82FA695A6959F
:10478000A6959A2F969595702A2F2570920F292F0E
:10479000237096959695920F877089137CC08981B6
:1047A000811179C0A53008F076C080E18A95F1F7D3
:1047B0005A9A529AB2E0BA95F1F700C05A98EA2E86
:1047C000F12CEAE0AE9FD0011124AD5FBE4F1896E8
:1047D000ED91FC9119973097B1F060915E01709165
:1047E0005F0116962D913C911797260F371F139650
:1047F0008D919C911497680F791F15964C91159780
:1048000012968C9109958AE08E9DF0018F9DF00D96
:104810001124ED5FFE4F6581662351F080915E01AA
:1048200090915F0126813781820F931F0E9482231E
:104830000E940123F0E1FA95F1F75A9852985A9A9A
:1048400080E18A95F1F78AE08E9D80018F9D100DA1
:1048500011240D5F1E4FD80112966C91129766239A
:1048600099F080915E0190915F0113962D913C919A
:104870001497820F931F0E942F23D801ED91FC9172
:10488000811105C082E004C0D801ED91FC9188E05F
:1048900080830E94F9220F90DF91CF91FF91EF91D9
:1048A000BF91AF919F918F917F916F915F914F9148
:1048B0003F912F911F910F91FF90EF900F900FBE9E
:1048C0000F901F9018950F931F93CF93DF93853010
:1048D00091050CF0A9C02AE0289FF001299FF00D56
:1048E0001124ED5FFE4F20813181232B09F49CC000
:1048F000EC01F894529A5A9885E08A95F1F70000F5
:104900008C2F869585709C2F9570890F982F9370AA
:10491000869586958E0123E0000F111F2A95E1F7F9
:10492000890F082B0E940123A4E0AA95F1F700C08B
:1049300068E0802F0E946223B0E1BA95F1F75298A7
:104940005A9A4A9902C000C0FCCF87E090E04A9B87
:1049500017C0019799F4529A5A9A8AE08C9FF001F5
:104960008D9FF00D1124ED5FFE4F0190F081E02D41
:1049700081E08083789481E090E058C000C0E7CF68
:104980008AE08C9F80018D9F100D11240D5F1E4FBA
:10499000F80165816623B9F080915E0190915F0115
:1049A00026813781820F931F0E942F2381110BC014
:1049B000529A5A9AD801ED91FC9182E080837894C2
:1049C00082E090E033C00E94F922B0E2BA95F1F79C
:1049D0005A98529AE0E1EA95F1F78AE08C9FF0014B
:1049E0008D9FF00D1124ED5FFE4F6281662351F023
:1049F00080915E0190915F0123813481820F931F2A
:104A00000E9482230E9401238AE08C9FF0018D9FE7
:104A1000F00D1124ED5FFE4F0190F081E02D10822A
:104A2000789480E090E002C084E090E0DF91CF9144
:104A30001F910F910895909354028093530208950B
:104A40000E945613811103C080914E020895E09197
:104A50005302F0915402309721F00190F081E02D43
:104A6000099480E00895E0915302F0915402309748
:104A700021F00280F381E02D09940895E091530222
:104A8000F0915402309739F022E0DC012C9304803D
:104A9000F581E02D09940895209151023091520240
:104AA0002817390771F09093520280935102E091D8
:104AB0005302F0915402309721F00680F781E02DE7
:104AC0000994089520914F02309150022817390718
:104AD00071F09093500280934F02E0915302F09155
:104AE0005402309721F00084F185E02D0994089557
:104AF000FC01329697E080E0915029F02191222329
:104B0000D9F38F5FF9CF0895662349F0FC013296FF
:104B100008962191621729F0E817F907D1F780E08C
:104B2000089581E008959C01FC0132969FEF80E09A
:104B30004191461789F09F3F19F4411101C0982F08
:104B40008F5F8630A9F79F3F39F0F901E90FF11D1A
:104B500097FDFA956283089508959C012A5F3F4F5F
:104B6000FC014281461301C012820196821793070D
:104B7000B9F708950C9493250C94AD25029626E080
:104B8000FC0111922A95E9F7089510929E02109265
:104B90009F021092A0021092A1020895CF92DF927C
:104BA000EF92FF926B017C010E94561381110EC09F
:104BB0000E94A326C61AD70AE80AF90AC0929E02E2
:104BC000D0929F02E092A002F092A102FF90EF909B
:104BD000DF90CF9008950F931F930E945613882360
:104BE00021F01F910F910C94A3260E94A3260091FF
:104BF0009E0210919F022091A0023091A102600FAD
:104C0000711F821F931F1F910F9108950E945613C9
:104C100081110C9497260E94EB25CB0108950895ED
:104C200008950C9410260C941026CF930E941326FE
:104C30000E94C9120E941126C0E08C2F0E94981178
:104C4000811104C0CF5FC830C1F701C081E0CF91AE
:104C500008950C9410260C9429268091AA02843081
:104C600049F10E942B2680E00E94EA03109255022F
:104C700020E488E190E00FB6F894A8958093600056
:104C80000FBE2093600083B7817F846083BF83B7AA
:104C9000816083BF7894889583B78E7F83BF0FB67A
:104CA000F894A895809160008861809360001092CC
:104CB00060000FBE08950C9410260E9433070E94D6
:104CC00020250E94EA030C945B261F920F920FB6D8
:104CD0000F9211248F939F93AF93BF9380915502AE
:104CE000811113C08091A2029091A302A091A4020D
:104CF000B091A5024196A11DB11D8093A20290938F
:104D0000A302A093A402B093A502BF91AF919F917B
:104D10008F910F900FBE0F901F90189582E084BD69
:104D200093E095BD9AEF97BD80936E0008952FB7DD
:104D3000F8948091A2029091A302A091A402B09154
:104D4000A5022FBF08952FB7F8946091A202709129
:104D5000A3028091A4029091A5022FBF08959C0107
:104D60004FB7F8948091A2029091A302A091A4025F
:104D7000B091A5024FBF821B930B0895CF92DF9293
:104D8000EF92FF922FB7F894C090A202D090A302A6
:104D9000E090A402F090A5022FBFA7019601261B68
:104DA000370B480B590BCA01B901FF90EF90DF9008
:104DB000CF90089578941F920F920FB60F921124FE
:104DC0008F939F93AF93BF938091A2029091A30280
:104DD000A091A402B091A5020196A11DB11D8093DE
:104DE000A2029093A302A093A402B093A502BF9144
:104DF000AF919F918F910F900FBE0F901F901895BC
:104E000087E797E790930108809300089AE088E18C
:104E10000FB6F894A895809360000FBE9093600041
:104E2000FFCF9093870180938601089580915E0261
:104E30000895089522E02093E9002FEF3091E800D3
:104E4000215035FD06C035ED3A95F1F700002111EE
:104E5000F5CF2091E80025FF0BC040E050E066E070
:104E600070E00E94F8288091E8008E778093E80037
:104E70000895CF93DF9321E02093E9002FEF309145
:104E8000E800215035FD06C035ED3A95F1F70000F8
:104E90002111F5CF2091E80025FF14C0EC0140E07E
:104EA00050E068E070E00E94F8288091E8008E777A
:104EB0008093E80088E0FE01A6E5B2E001900D9243
:104EC0008A95E1F7DF91CF91089508958091A90225
:104ED000811109C00E94892A0E94E62A8091E2007D
:104EE00084608093E20008951092A90208950895C5
:104EF0000895089542E061EC81E00E94022A42E2B6
:104F000061EC82E00C94022A8091AC02833009F4B7
:104F100060C030F4813071F0823009F499C0089596
:104F20008A3009F485C08B3009F46BC0893009F0F0
:104F3000A7C020C08091AB02813A09F0A1C0809146
:104F4000E800877F8093E8008091AF029091B002E3
:104F5000892B21F468E086E592E003C060E080E000
:104F600090E070E00E9443298091E8008B77809365
:104F7000E80008958091AB02813209F081C08091F0
:104F8000AF029091B002029708F07AC08091E800D9
:104F9000877F8093E8008091E80082FD05C08091C2
:104FA000AA028111F8CF6CC02091F3008091F20029
:104FB00090E0922B029729F48091F1008B7F813051
:104FC00021F48091F10080935E028091E8008B775C
:104FD00053C08091AB02813A09F052C08091AF0278
:104FE0009091B002892B09F04BC08091E800877F37
:104FF0008093E8008091E80080FFFCCF8091500111
:1050000036C08091AB028132D9F58091AF02909188
:10501000B002892BA9F58091E800877F8093E80092
:105020000E94372A8091AD02809350010C9433077F
:105030008091AB02813221F58091E800877F8093D7
:10504000E8000E94372A8091AE0280935F020895A3
:105050008091AB02813AA1F48091E800877F809330
:10506000E8008091E80080FFFCCF80915F02809390
:10507000F1008091E8008E778093E8000C94372A45
:10508000089584B7877F84BF0FB6F894A895809160
:105090006000886180936000109260000FBE90E015
:1050A00080E80FB6F89480936100909361000FBE82
:1050B0000C94BA0E0E94892A0E94E62AE2EEF0E0E1
:1050C00080818460808378940E947B2D0E94C80E2A
:1050D00086E491E00C941B258091AA028530A9F406
:1050E0008091AA02853079F40E942D268091A80231
:1050F0008823B1F30E941526882391F30E94E228A9
:105100000E943307EDCF0E945D260C94D40E0C94C0
:105110008928292F332723303105C9F060F4213045
:10512000310581F02230310509F044C08BE390E075
:1051300025ED34E043C021323105E1F02232310562
:1051400049F138C082E190E020E135E037C099278D
:105150008130910549F028F0029761F5E3EAF4E027
:1051600005C0E1EDF4E002C0E7EBF4E0849190E0EB
:105170009F0124C06115710541F061307105D1F4C2
:1051800089E090E020E035E019C089E090E027EE6A
:1051900034E014C06115710541F06130710551F4BE
:1051A00089E490E022E235E009C080E490E02BE65B
:1051B00035E004C080E090E020E030E0FA01318387
:1051C0002083089580E189BD82E189BD09B400FE94
:1051D000FDCF8091D8008F7D8093D8008091E00032
:1051E00082608093E0008091E00081FDFCCF089513
:1051F000CF92DF92EF92FF920F931F93CF93DF93A3
:10520000EC018B017A010E94562A811133C0E1140E
:10521000F10439F0F70180819181081B190BC80F47
:10522000D91FC12CD12C0115110519F18091E8006D
:1052300085FD16C08091E8008E778093E800E11428
:10524000F10449F0F70180819181C80ED91ED18205
:10525000C08285E00FC00E94562A882321F30AC02D
:1052600089918093F10001501109FFEFCF1ADF0AF5
:10527000DACF80E0DF91CF911F910F91FF90EF90F7
:10528000DF90CF9008952091B1023091B20226179D
:10529000370748F06115710539F42091E8002E7741
:1052A0002093E80001C0B901FC0120E061157105FF
:1052B00079F18091AA028823F1F18530F1F1809192
:1052C000E80083FD3CC08091E80082FD2EC0809103
:1052D000E80080FFEBCF2091F3008091F20090E096
:1052E000922B6115710551F08830910538F42191A8
:1052F0002093F100615071090196F3CF21E00897E6
:1053000009F020E08091E8008E778093E800CECF0E
:105310002111CFCF0AC08091AA02882361F0853085
:1053200061F08091E80083FD0AC08091E80082FF6F
:10533000F2CF80E0089582E0089583E0089581E04F
:1053400008952091B1023091B2022617370748F034
:105350006115710539F42091E8002E772093E8005B
:1053600001C0B901FC0120E06115710591F1809146
:10537000AA02882309F440C0853009F43FC0809117
:10538000E80083FD3DC08091E80082FD2FC0809140
:10539000E80080FFE9CF2091F3008091F20090E0D7
:1053A000922B6115710559F08830910540F42491D4
:1053B0002093F1003196615071090196F2CF21E0FE
:1053C000089709F020E08091E8008E778093E8004C
:1053D000CBCF2111CCCF0AC08091AA02882361F0E3
:1053E000853061F08091E80083FD0AC08091E8007B
:1053F00082FFF2CF80E0089582E0089583E008956F
:1054000081E00895982F973068F59093E9009817F8
:1054100039F07091EC002091ED005091F00003C044
:10542000242F762F50E021FD02C09F5FECCF3091FA
:10543000EB003E7F3093EB003091ED003D7F3093E9
:10544000ED003091EB0031603093EB007093EC0095
:105450002093ED005093F0002091EE0027FDE5CF62
:1054600080E008958F708093E90081E00895809135
:10547000AB0287FF11C08091E80082FD05C08091DA
:10548000AA028111F8CF11C08091E8008B770BC080
:105490008091AA02882349F08091E80080FFF8CF2C
:1054A0008091E8008E778093E80008952091E400D1
:1054B0003091E50095E64091EC00842F817040FF2B
:1054C00023C08091E80080FD1DC08091AA0288233E
:1054D00099F0853099F08091EB0085FD11C04091E5
:1054E000E4005091E5002417350729F3915011F09D
:1054F0009A01E1CF84E0089582E0089583E0089561
:1055000081E0089580E008954091E80042FFDDCFFA
:1055100008950E94F72A0E94FF2AE0EEF0E08081C1
:1055200081608083E8EDF0E080818F77808319BC13
:10553000A7EDB0E08C918E7F8C9380818F7E8083ED
:105540001092A90208950F931F93CF93DF930E94A7
:10555000F72A0E94FF2AC8EDD0E088818F778883E0
:1055600088818068888388818F7D888319BC1092A8
:10557000AA021092A6021092A8021092A70200EEB0
:1055800010E0F80180818B7F80838881816088832F
:1055900042E060E080E00E94022AE1EEF0E08081DB
:1055A0008E7F8083E2EEF0E0808181608083808165
:1055B00088608083F80180818E7F8083888180610C
:1055C0008883DF91CF911F910F910895E8EDF0E06E
:1055D00080818F7E8083E7EDF0E080818160808331
:1055E00084E082BF81E08093A9020C94A32AE8EDB5
:1055F000F0E080818E7F80831092E2000895109207
:10560000DA001092E10008951F920F920FB60F92E8
:1056100011242F933F934F935F936F937F938F93B7
:105620009F93AF93BF93EF93FF938091E10082FF2D
:105630000BC08091E20082FF07C08091E1008B7F68
:105640008093E1000E947A2D8091DA0080FF1FC0D4
:105650008091D80080FF1BC08091DA008E7F8093FC
:10566000DA008091D90080FF0DC080E189BD82E120
:1056700089BD09B400FEFDCF81E08093AA020E949B
:10568000662705C019BC1092AA020E947427809157
:10569000E10080FF19C08091E20080FF15C0809179
:1056A000E2008E7F8093E2008091E200806180932F
:1056B000E2008091D80080628093D80019BC85E018
:1056C0008093AA020E9478278091E10084FF30C075
:1056D0008091E20084FF2CC080E189BD82E189BD18
:1056E00009B400FEFDCF8091D8008F7D8093D80053
:1056F0008091E1008F7E8093E1008091E2008F7EB7
:105700008093E2008091E20081608093E2008091CA
:10571000A602882311F084E007C08091E30087FD92
:1057200002C081E001C083E08093AA020E94792731
:105730008091E10083FF29C08091E20083FF25C0B2
:105740008091E100877F8093E10082E08093AA024C
:105750001092A6028091E1008E7F8093E1008091FB
:10576000E2008E7F8093E2008091E200806180936E
:10577000E20042E060E080E00E94022A8091F000B6
:1057800088608093F0000E947727FF91EF91BF918E
:10579000AF919F918F917F916F915F914F913F91C9
:1057A0002F910F900FBE0F901F9018951F920F9280
:1057B0000FB60F9211242F933F934F935F936F93E4
:1057C0007F938F939F93AF93BF93CF93DF93EF9389
:1057D000FF93C091E900CF708091EC00D82FD17079
:1057E00080FDD0E81092E9008091F000877F8093DF
:1057F000F00078940E941A2C1092E9008091F00039
:1058000088608093F000CD2BCF70C093E900FF91AA
:10581000EF91DF91CF91BF91AF919F918F917F9148
:105820006F915F914F913F912F910F900FBE0F900D
:105830001F9018951F93CF93DF93CDB7DEB7AA972C
:105840000FB6F894DEBF0FBECDBFEBEAF2E0809159
:10585000F100819322E0E33BF207C9F70E9484271D
:105860008091E80083FF2EC18091AB029091AC0241
:10587000492F50E04A30510508F024C1FA01EC5894
:10588000FF4F0C94002E803821F0823809F01AC1A5
:1058900008C08091A7029091A802992389F08260A4
:1058A0000FC08091AF028F70873008F00BC18093DA
:1058B000E9008091EB0085FB882780F91092E900D0
:1058C0009091E800977F9093E8008093F100109208
:1058D000F100D1C0282F2D7F09F0F4C0882319F0E2
:1058E000823061F0EFC08091AD02813009F0EAC0F2
:1058F000933009F080E08093A8022EC08091AD0221
:1059000081112AC08091AF028F702FEF280F2630AF
:1059100008F0D8C08093E9002091EB0020FF1CC064
:10592000933021F48091EB00806214C09091EB00E1
:1059300090619093EB0021E030E0A90102C0440F98
:10594000551F8A95E2F74093EA001092EA00809191
:10595000EB0088608093EB001092E9008091E800F2
:10596000877F8093E8000E94372AACC08111AAC0CB
:105970001091AD021F778091E3008078812B809396
:10598000E3008091E800877F8093E8000E94372A37
:105990008091E80080FFFCCF8091E30080688093D5
:1059A000E300111102C082E001C083E08093AA02EB
:1059B00089C08058823008F085C08091AD029091F6
:1059C000AE028C3D53E0950779F583E08A838AE245
:1059D00089834FB7F894DE01139620E03EE051E250
:1059E000E32FF0E050935700E49120FF03C0E295CD
:1059F000EF703F5FEF708E2F90E0EA3010F0C796A7
:105A000001C0C0968D939D932F5F243149F74FBFFE
:105A10008091E800877F8093E8006AE270E0CE0121
:105A200001960E94432916C06091AF027091B002A6
:105A3000AE014F5F5F4F0E948728BC01892B09F49C
:105A400041C09091E800977F9093E80089819A8106
:105A50000E94A1298091E8008B778093E80032C0F2
:105A6000803881F58091E800877F8093E8008091FD
:105A7000A6028093F1008091E8008E7772CF8111A9
:105A800021C08091AD029091AE0299270297D4F483
:105A90008091E800877F8093E8008091AD02809339
:105AA000A6020E94372A8091A602811106C0809129
:105AB000E30087FD02C081E001C084E08093AA0278
:105AC0000E947A278091E80083FF0AC08091E80055
:105AD000877F8093E8008091EB0080628093EB00E9
