:100000000C947D020C94C4020C94C4020C948A20BB
:100010000C94C4020C94C4020C94C4020C94C40248
:100020000C94C4020C94C4020C94AE270C94802847
:100030000C9445230C94C4020C94C4020C94C40286
:100040000C94C4020C94C4020C94C4020C94C40218
:100050000C94C4020C94BA230C94C4020C94C402F1
:100060000C94C4020C94C4020C94C4020C94C402F8
:100070000C94C4020C94C4020C94C4020C94C402E8
:100080000C94C4020C94C4020C94C4020C94C402D8
:100090000C94C4020C94C4020C94C4020C94C402C8
:1000A0000C94C4020C94C4020C94C402AA04AA04C2
:1000B000DC04DC0439063906390639062305B8059F
:1000C000C905C9052906390639063206CD06CD0609
:1000D000DF06DF06D606DF06DF06DF06CD06CD0625
:1000E000DB06DF06DF06DB06ED2814290C2A1429BF
:1000F0000C2A602983290C2ADA29E92914001A001C
:10010000090013000A00040015681664174307006D
:100110001D001B0006001900050000000000E000A3
:1001200002512C0033001C0018000F000D001200BB
:100130000C68086411000B0038003700360010000E
:100140000E000000000028000151E1001E001F0009
:100150002000210022002900E300E200000000004E
:10016000000035000000000000000000000000005A
:100170000000000027002600250024002300300096
:100180002F002E002D000000340031000000000080
:100190000000000000000000000000001E021F021E
:1001A0002002210222022900E300E20000000000F8
:1001B00039003502000000000000000000000000CF
:1001C000000000002702260225022402230230023A
:1001D0002F022E022D020000340231020000000026
:1001E0000000000000004C0000002A000000000099
:1001F00000000000000000000000000000000000FF
:100200000000000000000000000000000000E0000E
:1002100000002C00000000004B004A00000000001D
:100220004F005200510050002B004E004E004D0078
:1002300000000000000028000000E10000047F3FF3
:100240001F643214643214783C1E1E140A052223E3
:10025000252628292A2C2D2F3032333536383A3BA3
:100260003D3E4042434547494A4C4E5051535557F5
:10027000595A5C5E6062646668696B6D6F71737514
:1002800077797B7D7F81838587898A8C8E90929414
:1002900096989A9C9E9FA1A3A5A7A8AAACAEAFB121
:1002A000B3B4B6B8B9BBBCBEBFC1C2C3C5C6C7C96B
:1002B000CACBCCCDCED0D1D2D2D3D4D5D6D7D7D825
:1002C000D9D9DADADBDBDBDCDCDCDCDCDDDDDDDD77
:1002D000DCDCDCDCDCDBDBDBDADAD9D9D8D7D7D67F
:1002E000D5D4D3D2D2D1D0CECDCCCBCAC9C7C6C536
:1002F000C3C2C1BFBEBCBBB9B8B6B4B3B1AFAEAC7C
:10030000AAA8A7A5A3A19F9E9C9A98969492908E26
:100310008C8A89878583817F7D7B79777573716FFF
:100320006D6B6968666462605E5C5A5957555351DB
:10033000504E4C4A4947454342403E3D3B3A383691
:10034000353332302F2D2C2A292826252322FFAAA7
:100350007F5540000101010101010101010202027A
:100360000202020202020303030303030303040461
:10037000040404040405050505050606060606072B
:100380000707070708080808090909090A0A0A0BE4
:100390000B0B0C0C0C0D0D0D0E0E0E0F0F0F101085
:1003A000111111121213131414151516161717180C
:1003B0001819191A1A1B1B1C1D1D1E1E1F20202177
:1003C0002222232424252626272829292A2B2C2DBE
:1003D0002D2E2F30313232333435363738393A3BDF
:1003E0003C3D3E3F404142434445464748494A4CD4
:1003F0004D4E4F50515354555658595A5B5D5E5FA0
:10040000616264656668696B6C6D6F707273757735
:10041000787A7B7D7E8082838587888A8C8E8F9197
:10042000939596989A9C9EA0A2A3A5A7A9ABADAFC1
:10043000B1B3B5B7BABCBEC0C2C4C6C9CBCDCFD1AB
:10044000D4D6D8DBDDDFE2E4E7E9EBEEF0F3F5F854
:10045000FAFDFF12036D006900630072006F006413
:10046000006F0078000000180342006F0061007206
:1004700000640073006F0075007200630065000087
:10048000000403090409022200010100A0FA090482
:1004900000000103010100092111010001224000B7
:1004A0000705810308000A1201000200000008E0AD
:1004B000F7120400000102000105010906A101056F
:1004C0000719E029E71500250195087501810295B6
:1004D00001750881010507190029FF150026FF0095
:1004E000950675088100050819012905950575010E
:1004F0009102950175039101C00011241FBECFEF39
:10050000DAE0DEBFCDBF04B603FE27C080919E02B5
:1005100090919F02A091A002B091A1028730904BD0
:10052000A740B04BD1F410929E0210929F021092FD
:10053000A0021092A10214BE84B7877F84BF0FB6B9
:10054000F894A89580916000886180936000109273
:1005500060000FBEE0E0F8E3099511E0A0E0B1E033
:10056000E4EBF6E502C005900D92AE37B107D9F77E
:1005700022E0AEE7B1E001C01D92AE39B207E1F76B
:100580000E9476150C94582B0C94000081E008957D
:1005900081E008950C94C80208950C94CC021F9336
:1005A000CF93DF9300D000D01F92CDB7DEB7498341
:1005B0005A836B833091800189819A81311114C0F3
:1005C000662359F0222349F00E947308182F682FE0
:1005D00089819A810E941A0803C00E944608182F38
:1005E00069817A81812F04C00E94730869817A81B0
:1005F0000F900F900F900F900F90DF91CF911F9160
:100600000C94FE0EFC01262F408151816281738182
:1006100084810C94CF0281E00895CF93DF93EC01A5
:1006200060E00E940203BE01DF91CF910C94CD02E5
:100630000E94F5100E9490030C942F110C942B1122
:1006400008950E94BB060E9420032FEF84E39CE0E4
:10065000215080409040E1F700C000000C94E0235E
:100660000F931F93CF93DF938C0161E00E940203ED
:10067000EC01B8010E94CA02882309F444C0B80101
:10068000CE010E94321E8823F1F1B801CE010E94F2
:10069000841E8823C1F1B801CE010E94B61F8823B1
:1006A00091F1B801CE010E94AD1C882361F1F801DF
:1006B0008281882309F1CB358DE5D807C1F050F44C
:1006C000C115FCE5DF0781F0CF3DDC45A9F40E94B0
:1006D000080E19C0CC35EDE5DE0761F0CD35DD45FE
:1006E00059F40E94920C08C00E9421030CC00E9481
:1006F0009B0C02C00E949E0CC801DF91CF911F91FC
:100700000F910C94C60280E0DF91CF911F910F9161
:10071000089508950C94890381E008950C948C0346
:100720000895CF93C82F0E948A038C2F0E948E03B6
:10073000CF910895CF93DF93CDB7DEB72B970FB648
:10074000F894DEBF0FBECDBF4F83588769877A8785
:100750008B8761110E94C10C9E012F5F3F4F86E085
:10076000F90111928A95E9F785E0FE013796D901E2
:1007700001900D928A95E1F789819A814C815D8182
:10078000452B31F09F3F31F491E08F3F19F403C0C6
:1007900091E001C090E090FF09C049815A816B81CE
:1007A0007C818D819E810E94C10B05C0C9010E9480
:1007B0000B038111F2CF2B960FB6F894DEBF0FBE5C
:1007C000CDBFDF91CF910895FC01808191810E947E
:1007D000B5080895CF93882371F1C82F8CEF8C0F43
:1007E000813AD0F46C2F80910001909101010E9418
:1007F0006422882349F06C2F8091000190910101BF
:100800000E949C220E94F30C6C2F80910001909119
:1008100001010E949A220CC080E28C0F883058F4AB
:10082000C77081E001C0880FCA95EAF70E94A40C46
:10083000CF910C94F30CCF910895882349F1682F40
:100840008CEF860F813A38F480910001909101017C
:100850000E949C220CC080E2860F883050F46770A2
:1008600081E001C0880F6A95EAF70E94AA0C0C94F7
:10087000F30C8BE5860F833020F480E090E00C943D
:100880002C22685A673120F480E090E00C944222D8
:1008900008951F93CF93DF93182FEB010E94EA0373
:1008A000209741F08FE99FE00197F1F700C0000029
:1008B0002197F6CF812FDF91CF911F910C941D04CA
:1008C000893319F060E070E002C060E570E00C94DC
:1008D0004904882321F00E94A40C0C94F30C089581
:1008E000882321F00E94AA0C0C94F30C0895CF9257
:1008F000DF92EF92FF920F931F93CF93DF937C01D0
:10090000062FC72FFC011281D581D295DF700E947E
:10091000790C882399F0112389F08C2F807F803403
:1009200021F080E2800F883048F082E00E94430D81
:100930000E94790C91E0D82ED92601C0D12CCC2E62
:10094000C2948FE0C8228C2D90E0FC01EA5AFF4F40
:100950000C94AA2A8C2F807FCF70882311F0C29527
:10096000C07F112399F0CC2309F45EC180E2800F8F
:10097000883010F0011104C08C2F0E94A40C03C019
:100980008C2F0E94B40C0E94F30C4EC1802F0E9449
:100990001D04CC2309F46DC180E2800F883010F073
:1009A000011104C08C2F0E94AA0C03C08C2F0E943E
:1009B000BA0C0E94F30C5DC18C2F807FCF70803207
:1009C00011F0C295C07F002319F00130C9F025C095
:1009D000112371F0DD2341F0D13031F40E94D40CA9
:1009E0008C2B0E94DC0C45C10E94D40C8C2B0EC0B9
:1009F000DD2319F0D13009F43CC10E94E90C1FC07D
:100A0000112339F0D63008F034C18C2F0E946904CC
:100A100030C1D53008F02DC112C0112319F0DD23EB
:100A2000A1F302C1DD2359F0093309F00EC1FFEF34
:100A300027EE83E0F15020408040E1F704C18C2F85
:100A40000E94700416C18C2F837009F045C01111EB
:100A500014C1402F429546954770440F440F602FB4
:100A60006F70862F90E0A0E0B0E0042E04C0880FE5
:100A7000991FAA1FBB1F0A94D2F704FF10C00FE0F2
:100A800010E020E030E004C0000F111F221F331FD0
:100A90004A95D2F7009510952095309503C000E057
:100AA00010E09801C695C695C370BC01CD01602BBE
:100AB000712B822B932BC23049F058F4C13019F0BE
:100AC0000E943007DAC00E941E07D7C00E9442076A
:100AD000D4C00E941C07D1C0112319F08C2F817043
:100AE00001C08695882309F4C8C0402F42954695D9
:100AF0004770440F440F602F6F70862F90E0A0E086
:100B0000B0E0042E04C0880F991FAA1FBB1F0A94CF
:100B1000D2F704FF10C00FE010E020E030E004C086
:100B2000000F111F221F331F4A95D2F70095109511
:100B30002095309503C000E010E09801C695C69559
:100B4000C370BC01CD01602B712B822B932BC23063
:100B500049F058F4C13019F00E94F5078EC00E9488
:100B6000E3078BC00E94070888C00E94560785C013
:100B7000CF70112339F08C2F0E947C07802F0E94A8
:100B800069047BC0802F0E9470048C2F0E949D07F7
:100B900074C0023F01F128F4003F41F0013FA1F091
:100BA0003FC0033FF9F0043F39F13AC0112341F04F
:100BB000D53008F05EC08C2F8F710E94C20759C0DB
:100BC000D63008F056C0F7CF112339F08C2F8F7133
:100BD0000E947C074EC01123C9F38C2F8F710E9495
:100BE0009D0747C0112329F08C2F8F710E94670742
:100BF00040C00E9462073DC0112349F0CF718C2F85
:100C00000E947C0763E08C2F0E94280D32C081E097
:100C10000E94430DD23068F182E00E94430D29C04A
:100C2000112331F0DD2391F2802F0E94EA0321C0CD
:100C3000DD2399F2093349F49FEFE7EEF3E0915099
:100C4000E040F040E1F700C00000802F0E941D044A
:100C500010C04C2F4F70602FC7010E94FA0E0E94E7
:100C6000E3080FC04C2F4F70602FC7010E94FD0E8C
:100C700008C088EF8C0D843020F40E940E220E9460
:100C80009103DD20C9F00E94750C80FD15C0F701AD
:100C900012820E946F0C0E947C07C7010E947D0691
:100CA0000E946F0CDF91CF911F910F91FF90EF90F9
:100CB000DF90CF900C949D07DF91CF911F910F9102
:100CC000FF90EF90DF90CF9008950F931F93CF93F5
:100CD000DF93EC01688179818A810E94C0088C01D0
:100CE0000E9419080E940A07B801CE010E947704E9
:100CF000DF91CF911F910F910895CF93DF93EC0176
:100D0000988189812B813C81232B31F08F3F31F4F5
:100D100081E09F3F19F403C081E001C080E080FDC5
:100D200019C0CE010E94300381110CC00E94790CC1
:100D3000882381F08A81882369F082E0DF91CF9156
:100D40000C94430DCE010E946506CE01DF91CF9138
:100D50000C940D03DF91CF9108950E94C10C0E9465
:100D6000D10C0C94F30C80910001909101010E9430
:100D70009E220C94AD060E94B10C0C94B306E92F90
:100D8000E295EF704E2F50E0FA013297EE30F10508
:100D9000B0F4EA59FF4F0C94AA2A803F91F018F45E
:100DA000883E68F40EC0843F51F40BC0883E48F082
:100DB000813F29F406C093FB882780F9089580E0DD
:100DC000089581E00895FC01808191810E94B50819
:100DD0000E94BF060895CF93DF9300D000D01F92EA
:100DE000CDB7DEB70F900F900F900F900F90DF915F
:100DF000CF910895CF93DF9300D000D000D0CDB72E
:100E0000DEB726960FB6F894DEBF0FBECDBFDF91DA
:100E1000CF910895089508950C940B070C940C0736
:100E20000E940E0760939E0170939F018093A00122
:100E30009093A1010C94AD060C9410070F931F938F
:100E400000919E0110919F012091A0013091A1017C
:100E5000602B712B822B932B1F910F910C941007F9
:100E60000F931F9300919E0110919F012091A0016B
:100E70003091A10160237123822393231F910F914D
:100E80000C9410070F931F9300919E0110919F01E6
:100E90002091A0013091A10160277127822793271B
:100EA0001F910F910C9410070C940B070E9454078C
:100EB00060939A0170939B0180939C0190939D0194
:100EC0000C94AD0660E070E0CB010C9456070F93D4
:100ED0001F9341E050E060E070E08A019B0104C094
:100EE000000F111F221F331F8A95D2F7C901B801C5
:100EF0001F910F910C9456070F931F9341E050E000
:100F000060E070E004C0440F551F661F771F8A958C
:100F1000D2F780919A0190919B01A0919C01B09190
:100F20009D018A019B01082B192B2A2B3B2BC90100
:100F3000B8011F910F910C9456070F931F9341E036
:100F400050E060E070E004C0440F551F661F771F3B
:100F50008A95D2F7409550956095709580919A0149
:100F600090919B01A0919C01B0919D018A019B01F0
:100F7000082319232A233B23C901B8011F910F918C
:100F80000C9456070F931F9341E050E060E070E02F
:100F900004C0440F551F661F771F8A95D2F78091B2
:100FA0009A0190919B01A0919C01B0919D018A01B1
:100FB0009B01082719272A273B27C901B8011F9140
:100FC0000F910C9456070F931F9300919A01109163
:100FD0009B0120919C0130919D01602B712B822BF4
:100FE000932B1F910F910C9456070F931F93009111
:100FF0009A0110919B0120919C0130919D016023E9
:101000007123822393231F910F910C9456070F9302
:101010001F9300919A0110919B0120919C013091A6
:101020009D0160277127822793271F910F910C94B0
:101030005607089524E0929F900D1124890FE82F00
:10104000E695E695E695877051E001C0550F8A95C3
:10105000EAF785E0E89FF0011124EF57FE4F20E00A
:1010600030E070E04081CB01022E02C0969587955A
:101070000A94E2F7817081958427852384278193E0
:101080002F5F3F4F2530310569F7089524E0929F87
:10109000900D1124890F682F669566956695982F97
:1010A000977085E0689FB001112440E050E080E037
:1010B000FB01E40FF51FEF57FE4F208130E0092EB2
:1010C00002C0369527950A94E2F721703327042E43
:1010D00001C0220F0A94EAF7822B4F5F5F4F453021
:1010E000510531F70895BF92CF92DF92EF92FF92B0
:1010F0000F931F93CF93DF938C01C0909A01D090F0
:101100009B01E0909C01F0909D0180919E01909147
:101110009F01A091A001B091A101C82AD92AEA2A71
:10112000FB2ACFE1D0E0D701C6010C2E04C0B69552
:10113000A795979587950A94D2F780FD04C02197CB
:1011400090F7B12C07C0BC2EB8018C2F0E9416104E
:101150000197A9F38B2DDF91CF911F910F91FF90F4
:10116000EF90DF90CF90BF900895CF93DF93EC0185
:101170000E947308BE010E941610DF91CF9108955E
:101180001F93CF93DF93EB0190918001992321F07E
:10119000CB010E94B50813C0882349F0CB010E94FF
:1011A0007308182F682FCE010E941A0804C0CB01C3
:1011B0000E944608182FBE01812F0E941610DF9151
:1011C000CF911F910895EF92FF920F931F93CF93AA
:1011D000DF938C01892B09F46CC0F12CEE24E3948D
:1011E000E8012196F8018491843740F4843008F0B6
:1011F00051C0813081F0823019F15BC0853709F42C
:1012000044C0A8F19CE7980F903708F052C08F7740
:101210000E941D0441C00E5F1F4FFE01849190E2A9
:10122000980F983050F48770FE2D01C0FF0F8A95FB
:10123000EAF78F2F0E94C40C14C00E94EA032DC04D
:101240000E5F1F4FFE01849190E2980F983060F47A
:101250008770FE2D01C0FF0F8A95EAF78F2F0E943D
:10126000CA0C0E94F30C19C00E941D0416C00E5F28
:101270001F4FFE01C491CC2381F08FE99FE00197BD
:10128000F1F700C00000C150F6CF0E5F1F4FFE0106
:10129000F49003C00E94EA038E018F2D882309F485
:1012A0009FCFEFE9FFE03197F1F700C000008150D8
:1012B000F5CFDF91CF911F910F91FF90EF9008959F
:1012C0001F93CF93DF93C091A20116E08091A301F9
:1012D000C81799F0D0E01C9FF0011D9FF00D11245C
:1012E000EC55FE4F408151816281738184819581EB
:1012F0000E94FA062196C770E9CFDF91CF911F9126
:1013000008954091D4015091D5016091D60170911A
:10131000D7018091D8019091D9010C94FA060F93CE
:101320001F93CF93DF938091D90182958F7009F03D
:101330005DC08091D601882309F458C08091A20134
:101340001091A3016091D4017091D501C091D70192
:10135000D091D80191E06F3F09F090E0292F06E08D
:10136000811709F443C0209721F07F3F21F030E03E
:1013700003C031E001C0322F90E030FD34C0089F3F
:10138000F001099FF00D1124DF01AC55BE4F1196FD
:101390003C911197371327C03C91361324C0129605
:1013A0003C91129731111FC013964D915C91149787
:1013B0004C1B5D0B483C5105B0F48091D9018F70F6
:1013C00080618093D901E755FE4F80818F708061E5
:1013D000808384ED91E00E947D06DF91CF911F9183
:1013E0000F910C94600901968770BACFDF91CF916D
:1013F0001F910F9108959F92AF92BF92CF92DF926B
:10140000EF92FF920F931F93CF93DF93CDB7DEB789
:1014100061970FB6F894DEBF0FBECDBF8C0185E09B
:10142000F801DE011D9601900D928A95E1F7F80111
:10143000E2809091D4016091D5012091D701309143
:10144000D8012115310531F06F3F31F481E09F3F24
:1014500019F403C081E001C080E0F82FF1709F2EE5
:1014600080FD3FC1F80140815181A380B48084EDAB
:10147000C82E81E0D82EF090D601F501E21BF30BC7
:10148000FF2009F4D9C08091D901E83CF10508F0AA
:1014900095C0282F207F09F052C0561313C049135E
:1014A00011C0FE2CE1100EC08F7080618093D901B5
:1014B0000E948109C6010E947D068091D901F80130
:1014C00085834CC1AB2831F05F3F31F481E04F3F61
:1014D00019F403C081E001C080E080FD03C081E019
:1014E0008E2502C080E090E0F82FF170FF2E80FF83
:1014F0001CC08091A2012091A30136E0821709F45B
:101500000BC190E0389FF001399FF00D1124EC558C
:10151000FE4F6181561306C06081461303C062818D
:10152000E61203C001968770E9CFFE2CEE2009F485
:1015300015C18091D90181608093D90154C056139F
:1015400006C0491304C0E11002C0F80199C0C801E7
:101550000E94E306882361F1EE2051F12091D90128
:10156000822F82958F7090E0029774F08091D40161
:101570009091D50198878F831986BB86AA862C8780
:10158000CE0107960E947D0686E0F801A4EDB1E049
:1015900001900D928A95E1F70E948F090E948109BE
:1015A0000AC0561711F1C8010E94E30681112CC030
:1015B000C8010E947D06FF24F394D0C0282F207F0D
:1015C00081F77A2DB98AA88A6E2D89890E94EB0647
:1015D00084ED91E00E947D0686E0F60111928A95E5
:1015E000E9F70E948109F12CB9C04913DCCFE11061
:1015F000DACFF8018583C8010E947D0686E0F601F6
:1016000011928A95E9F7AAC0EE2091F22091D901B2
:10161000822F82958F7090E002970CF4B5CF809165
:10162000D4019091D5019A8389831B82BD82AC82BB
:101630002E83CE010196A6CFE83CF10508F044C008
:10164000FE2CEE2009F4B4CF561330C049132EC03F
:101650002091D90120FD21C0822F82958F70482FC3
:1016600050E041155105C9F0F80125834F3051056F
:1016700041F08F5F982F9295907F822F8F70892BEA
:101680008583C8010E947D0686E0F801A4EDB1E0E3
:1016900001900D928A95E1F73CC086E0F801A4ED37
:1016A000B1E001900D928A95E1F758C0C8010E94FF
:1016B000E306811169CF8091D90181608093D901BE
:1016C000C8010E947D064AC07A2DB98AA88A6E2D6B
:1016D00089890E94EB0686E0F60111928A95E9F766
:1016E00018C0EE2009F464CFC8010E94E306F82E6A
:1016F000882309F45DCF86E0F801A4EDB1E0019004
:101700000D928A95E1F784ED91E00E94E4030E9436
:101710008F090E94810922C04D875E878D859E8535
:101720000E94B508292F22952F70223028F49F702F
:1017300039F0811105C00BC0243028F49F7049F4A2
:10174000805E883020F0C8010E947D069F2CF92C15
:1017500005C0F8019581907F99F7F9CF8F2D61969B
:101760000FB6F894DEBF0FBECDBFDF91CF911F91B2
:101770000F91FF90EF90DF90CF90BF90AF909F9030
:1017800008951F93CF93DF93CDB7DEB72C970FB695
:10179000F894DEBF0FBECDBF4F83588769877A8725
:1017A0008B879C87CE0107960E94FB098823D1F086
:1017B0009F8188852A853B85232B31F08F3F31F42B
:1017C00081E09F3F19F403C081E001C080E080FD0B
:1017D00047C04F81588569857A858B859C850E9495
:1017E000FA063EC086E0FE013796DE0111960190B2
:1017F0000D928A95E1F7FF81E8856A857B85611501
:10180000710531F0EF3F31F481E0FF3F19F403C07F
:1018100081E001C080E080FD23C02091A30130E081
:10182000C9010196877099274091A20150E0841761
:101830009507F1F1F983EA837D836C8396E0929FAB
:10184000D001939FB00D1124AC55BE4FFE013196CF
:1018500001900D929A95E1F78093A3010E9460098F
:1018600016E08091A2019091A301891771F1189F50
:10187000C00111248C559E4F0E94FB09882329F139
:10188000E091A2011E9FF0011124EC55FE4F408112
:10189000518162817381848195810E94FA068091D1
:1018A000A20190E00196877099278093A201D9CF79
:1018B0000E94BB061092A3011092A201E4EDF1E098
:1018C00086E0DF011D928A95E9F72C960FB6F89411
:1018D000DEBF0FBECDBFDF91CF911F9108958091E4
:1018E000DA0185958595859508958091DA0187704F
:1018F00008959091DA01977081E009F480E00895ED
:1019000090914C0292FB222720F9281751F080FB7E
:1019100092F990934C0280914B0290914C020C945E
:10192000840D089580914C0282FB882780F991E014
:1019300089270C94800C81E00C94800C80E00C943E
:10194000800C8091E60108959091E601892B8093A7
:10195000E601089580959091E60189238093E60140
:1019600008951092E60108959091E501892B8093E6
:10197000E501089580959091E50189238093E50123
:1019800008951092E50108959091E401892B8093C8
:10199000E401089580959091E40189238093E40106
:1019A00008951092E40108958091DB01089508954F
:1019B0000C94D70C0C94D80C90914C0292FD08C05A
:1019C0009091DB01981721F08093DB010C94DA0CE5
:1019D00008958091DB01882329F01092DB0180E0DB
:1019E0000C94DA0C0895E0910001F09101018091CE
:1019F000E6018083E0910001F091010190818091E6
:101A0000E501892B8083E0910001F0910101908133
:101A10008091E401892B80838091DB01882381F010
:101A2000E0910001F09101019081892B80838091E8
:101A30000001909101010E94582281110E94E90C3D
:101A400080910001909101010C9421220C94D70CFB
:101A500090914C0292FD10C098E0899F9001112452
:101A6000262B2093DA010E947C078091DA0185956C
:101A7000859585950C94260D0C947C071092DA01BF
:101A800080E00C94260D2091DA01809582238093CA
:101A9000DA01982F977041F430E0482F082E000C9F
:101AA000550B2417350721F490914C0292FF07C083
:101AB0008595859585950E949D070C943E0D08950A
:101AC00080E090E00E941E2B21E0893E9E4F09F0AD
:101AD00020E0822F089582E090E00C94102B83E0A8
:101AE00090E00C94102BCF9384E090E00E94102B98
:101AF000C82F82E290E00E94102B2C2F30E0A90129
:101B0000582BCA01CF910895CF93C92F682F84E035
:101B100090E00E94242B6C2F82E290E0CF910C94F5
:101B2000242BAB01BC018FE090E00C94362BAB0171
:101B3000BC0183E190E00C94362B60E070E0CB01B7
:101B40000C94970D60E070E0CB010E94910D0C9415
:101B50009D0D69EE7EEF80E090E00E94422B60E0F8
:101B600082E090E00E94242B60E083E090E00E94FD
:101B7000242B10929E0110929F011092A0011092AE
:101B8000A10160E084E090E00E94242B60E082E20A
:101B900090E00E94242B60E085E090E00E94242BDE
:101BA00060E086E090E00E94242B6FEF87E090E0F9
:101BB0000E94242B40E050E0BA0188E090E00E94AF
:101BC000362B60E08DE090E00E94242B40E050E056
:101BD000BA0188E190E00E94362B60E087E190E056
:101BE0000E94242B40E050E0BA018CE190E00E947A
:101BF000362B60E070E080E290E00E94422B40E0F3
:101C000050E0BA0188E190E00E94362B0C94A20DBE
:101C10000C94A90D8EE090E00E94102B91E08111B0
:101C200001C090E0892F0895682F8EE090E00C9419
:101C3000242B0E9483236093F4017093F501809319
:101C4000F6019093F7016093F0017093F101809396
:101C5000F2019093F301089585B7806885BF85B739
:101C6000806885BF08950C94D71208950C94350EA2
:101C70000C94350E0C94380E0C94350E0C943C0ECE
:101C80000C94350E0E942C0E82EF90E10E94F123FD
:101C90000E94400E0C943E0E0E94360E0C94350E9F
:101CA0000E946E230E94A5220E94D5110E94A71DAA
:101CB0000E949D1B0C943A0E9F92AF92BF92CF92BE
:101CC000DF92EF92FF920F931F93CF93DF93CDB7E5
:101CD000DEB72A970FB6F894DEBF0FBECDBF0E94C5
:101CE0004A1281110E94190E88EEA82E81E0B82EAA
:101CF00000E010E0902E802F0E941911D82EF501DF
:101D0000C1905F01C826B1F40F5F1F4F0830110565
:101D100089F78FEF89838A831B820E9477238160F2
:101D2000782F9D838C8349815A816B818D810E949C
:101D30009A032FC08091F80181FD0E941F11E12CB0
:101D4000FF24F3948C2D8F21F1F00E94330E882311
:101D500099F0EE829F82DF2081E009F480E088879D
:101D60000E9477238160782F9A8789874E815F81CF
:101D700068858A850E949A03F801E851FE4F8081A8
:101D8000F826F08206C0E394FF0CF5E0EF12DACFFC
:101D9000BBCF0E94D51B0E940E229091E7018917AC
:101DA000B9F00E940E228093E7012A960FB6F894AC
:101DB000DEBF0FBECDBFDF91CF911F910F91FF907E
:101DC000EF90DF90CF90BF90AF909F900C949103D5
:101DD0002A960FB6F894DEBF0FBECDBFDF91CF912C
:101DE0001F910F91FF90EF90DF90CF90BF90AF9039
:101DF0009F90089580E090E00895089528E2829FE2
:101E0000C0011124FC0125E0729FE00DF11D112499
:101E1000E60FF11DEE0FFF1FE450FF4F85919491E7
:101E20000895880F991FFC01E45CFD4F8591949102
:101E30000895CF93DF930E941B10EC01811521E5DB
:101E4000920798F5811540E5940708F085C0811543
:101E500050E29507F0F4C11581E0D80708F0E2C020
:101E6000C03ED10588F4C03CD10508F065C0C13042
:101E7000D10509F45EC008F4D2C0CE010497813ABE
:101E8000910508F4CFC0CBC0C83ED10508F4CAC044
:101E9000C6C0811520E4920708F05BC0811540E3BD
:101EA000940708F04FC09F704AC0811555E595070B
:101EB000A0F4C11584E5D80708F095C0C11523E545
:101EC000D20708F07BC0C11542E5D40708F061C015
:101ED0009C2F8827816F906AA6C0811559E59507C8
:101EE00098F4C11588E5D80708F082C0C11526E529
:101EF000D20708F094C08C2F0E94AF108F7190E031
:101F0000982F882790628FC081154AE5940708F4BE
:101F100074C090568115904208F081C08D2F8F714A
:101F20000E94AF109E01332730628F71A901582B98
:101F300074C081E090E077C0CE01805C91090E947E
:101F4000110F71C09927D3FF02C0986C6CC0906CC0
:101F50006AC09F70906A67C0F4E096958795FA957D
:101F6000E1F7282F23703C2F337081E090E002C00E
:101F7000880F991F3A95E2F79C68922B2C2F2F70AF
:101F80002695269540E2249F90011124822B932BC5
:101F90004AC09E012370332781E090E002C0880F81
:101FA000991F2A95E2F72C2F2695269550E2259F1A
:101FB00090011124822B932B9C6835C09E012370C5
:101FC000332781E090E002C0880F991F2A95E2F73D
:101FD0002C2F2695269540E2249F90011124822BD8
:101FE000932B9A6820C09C2F8827846F906A1BC00F
:101FF0009C2F8827806F906A16C08F700E94AF1048
:102000009E0194E0369527959A95E1F72F7030E080
:10201000322F22273069A901482BCA0104C080E071
:1020200090E001C0CE01DF91CF9108950E94FE0E95
:102030000E94190F08958238910569F1B0F4813337
:10204000910509F46DC048F48932910509F463C023
:102050008A32910509F469C008958533910509F420
:1020600055C089339105B9F00895833E910569F112
:1020700038F4803E9105B1F0823E910509F1089552
:10208000863E9105A9F1873E9105B9F1843E9105FF
:1020900009F064C023C020914B0220FD4FC021FDF8
:1020A0004DC0089580914B0280FD44C080914C0248
:1020B00080FF44C080914B0284FD42C083EE4DC03E
:1020C00080914B0282FF38C0F5CF80914B0282FD98
:1020D00033C080914C0280FD31C0ECCF80914C0226
:1020E00081FF32C080914B0284FD2AC087EE35C04B
:1020F00080914B0283FF26C0F5CF80914B0283FD78
:1021000021C080914C0281FD1FC0ECCF80914B0219
:1021100085FD1CC01DC080914B0285FD19C016C0F5
:1021200080914B0286FD16C017C080914B0286FD40
:1021300013C010C089E311C082EE0FC080EE0DC045
:1021400080E00BC086EE09C084EE07C089E205C0BE
:1021500085E303C08AE201C081E390E00895909195
:102160004B0292FF0DC0282F2871283019F4877F69
:10217000846006C0282F2471243011F48B7F88607E
:1021800093FF0DC0282F2871283119F4877E8461B0
:1021900006C0282F2471243111F48B7E8861209190
:1021A0004C0220FF0DC0382F3871383019F4877F6A
:1021B000816006C0382F3171313011F48E7F886014
:1021C00021FF0DC0282F2871283119F4877E8161E5
:1021D00006C0282F2171213111F48E7E886194FD73
:1021E000877E089580E0089508950E94600D811112
:1021F00002C00E94080E0E946B0D8093F8010E949D
:10220000730D90934C0280934B020E94F4100E9435
:102210006F0D682F70E080E090E00E941C076091D5
:102220009A0170919B0180919C0190919D010C9469
:102230005407E82FF0E0EB5AFD4F80810895089590
:1022400080EA8A95F1F7089500C008950C94201152
:1022500008950C9428110C9429110C9428110C94B5
:102260002D11F894E82FE295EF70F0E031A1282FBE
:102270002F7081E090E001C0880F2A95EAF7982F2F
:102280009095932391A392A1892B82A3789408958A
:1022900008950C9448110F931F93CF93DF93CEE4CE
:1022A000D1E089918F3F11F00E94311181E0C23558
:1022B000D807B9F7C9E4D1E00EE411E089918F3F66
:1022C00011F00E9431110C171D07C1F7DF91CF915A
:1022D0001F910F910895CF92DF92EF92FF920F938B
:1022E0001F93CF93DF938C01C62FD0E0CE01825B8A
:1022F0009E4F7C01FC0190819F3F09F44DC0D62E7A
:10230000F894E92FE295EF70F0E081A19F7021E051
:1023100030E001C0220F9A95EAF7822B81A382A1B7
:102320002095282322A378940E942411E9E4F1E067
:1023300020E030E0C12C51E041914F3FB1F0A42F9B
:10234000A295AF70B0E090968C9190E04F7002C073
:10235000959587954A95E2F780FD07C0852F022E57
:1023600001C0880F0A94EAF701C080E0C82A2F5FF5
:102370003F4F2530310501F7F70180818F3F11F084
:102380000E94311161E0C11001C060E08D2D0E94FA
:102390002611C00FD11FC882DF91CF911F910F91DD
:1023A000FF90EF90DF90CF9008950E94EF12809100
:1023B000020180910201811102C094E001C090E00D
:1023C00090935E0284E0891B80935D020E944B1112
:1023D000EDE4F2E0A5E5B2E011921D9282E0E53570
:1023E000F807D1F784E00E949E120E9418030C9413
:1023F00003131F93CF93DF9300D000D0CDB7DEB788
:102400000E94D71260915E02882371F119821A82AC
:102410001B821C82862F90E0BE016F5F7F4F8B5A1C
:102420009D4F0E941113E0915D029E012B5F3F4F73
:10243000F0E0EB5AFD4FDE011196882361F010E0C9
:102440008D919081981711F0808311E03196A21739
:10245000B307B1F706C011921D92A217B307D9F7BF
:1024600011E00E941E030DC070E06B5A7D4F8091F9
:102470005D0290E08B5A9D4F0E94A1130E9449116A
:1024800010E0812F0F900F900F900F90DF91CF9160
:102490001F910895EF92FF920F931F93CF93DF93B5
:1024A000CDB7DEB728970FB6F894DEBF0FBECDBF0D
:1024B0008E010F5F1F4F88E0F80111928A95E9F7AE
:1024C000F12C6F2DC8010E946B11F394F4E0FF1200
:1024D000F8CF48E050E0B8018DE492E00E94FA2A7B
:1024E0007C0121E0892B09F420E0E114F10441F0A2
:1024F00088E0F801ADE4B2E001900D928A95E1F731
:1025000060915E0270E06B5A7D4F44E08DE492E092
:102510000E949F12EF2819F40E94F91102C081E075
:1025200090E028960FB6F894DEBF0FBECDBFDF91C6
:10253000CF911F910F91FF90EF9008950895FF9212
:102540000F931F93CF93DF938C01F62ED72FC42FB9
:10255000222349F081E08093FB010E94772390932E
:10256000FA018093F9018091FB018823C1F08091E9
:10257000F9019091FA010E948F23059780F0EF2DC9
:10258000FD2FD8014C2F50E0CD01801B910B8417FB
:1025900095071CF48D918193F7CF1092FB01DF9189
:1025A000CF911F910F91FF9008950C940A0E809186
:1025B000FE0181110DC00E94452A811102C082E0F6
:1025C00001C081E08093FE01823011F40E94402A14
:1025D00081E09091FE01913009F080E008950E9421
:1025E000D512809302018091020166E0882311F0E8
:1025F00080E001C086E00E9416160E94D712811169
:102600000C94491308950E94D712811102C00C94B2
:102610004B13089581E09091FF019A3008F080E01B
:1026200008950F931F93CF93DF93EC018B0180915B
:10263000FF018A3038F4B801CE010E949F13811146
:102640001DC00AC08091FC019091FD010E948F2362
:10265000843F914080F715C08091FF018F3F19F0B2
:102660008F5F8093FF018091FF018A3060F00E94AC
:1026700077239093FD018093FC0103C01092FF012A
:1026800002C080E001C081E0DF91CF911F910F91E6
:1026900008950C9444200C944720EF92FF920F93DE
:1026A0001F93CF93DF937901C82F880FDD0B41155E
:1026B0005105A9F08AE08C9FF0018D9FF00D112447
:1026C000ED5FFE4F8381948180509E4F228130E0E8
:1026D0004217530708F49A01A9010E94072BCE0163
:1026E0000E945121892B09F50115110501F18AE09C
:1026F0008C9FF0018D9FF00D1124ED5FFE4F458101
:1027000050E00417150708F4A8018AE08C9FF00137
:102710008D9FF00D1124ED5FFE4F66817781605033
:102720007E4FC7010E94072B02C080E001C081E0FC
:10273000DF91CF911F910F91FF90EF9008950C942E
:102740000D150C9431150F931F93CF93DF9300D089
:1027500000D0CDB7DEB760911D0270911E0280914E
:102760001F02909120020E949E236436710581050C
:10277000910528F10E94CB22DC01CB010296A11D1C
:10278000B11D89839A83AB83BC8300E010E020E015
:1027900030E044E050E0BE016F5F7F4F82E00E9476
:1027A0004D13182F882361F00E94832360931D022C
:1027B00070931E0280931F029093200201C011E0CB
:1027C000812F0F900F900F900F90DF91CF911F915D
:1027D0000F910895AF92BF92CF92DF92EF92FF9246
:1027E0000F931F93CF93DF937C015B016A010E94DB
:1027F0000A13811103C001E010E002C00AE010E0FA
:10280000C1E0D0E0F894B501C701F60109957894CC
:10281000811115C021960C171D0794F0CC9F9001D3
:10282000CD9F300D300D112480E090E045E34A95B6
:10283000F1F70000019682179307C1F7E3CF81E01B
:10284000DF91CF911F910F91FF90EF90DF90CF908C
:10285000BF90AF9008950F931F93CF93DF93CDB7A1
:10286000DEB728970FB6F894DEBF0FBECDBFCE01FE
:1028700001960E94901A188560912102709122029F
:1028800080912302909124020E949E236436710558
:102890008105910510F41123D9F000E010E020E04B
:1028A00030E048E050E0BE016F5F7F4F83E00E9460
:1028B0004D13882359F00E94832360932102709363
:1028C0002202809323029093240202C080E003C07E
:1028D0000E948D1A81E028960FB6F894DEBF0FBED5
:1028E000CDBFDF91CF911F910F910895AF92BF920D
:1028F000CF92DF92EF92FF920F931F93CF93DF93CC
:1029000000D000D01F92CDB7DEB75B01E09056013A
:10291000F090570101E010E09E012B5F3F4F40E037
:1029200050E060E070E080E00E944D13182F882393
:1029300009F43EC067018FEFC81AD80A60911902E6
:1029400070911A0280911B0290911C020E949E239A
:10295000643671058105910518F104E010E09E01CF
:102960002F5F3F4F40E050E060E070E081E00E9468
:102970004D13182F64E070E0C6010E94A81D91E07D
:102980002D81281390E0192351F10E948323609335
:10299000190270931A0280931B0290931C0211C0BB
:1029A00064E070E0C6010E94A81D9D818913D5CF07
:1029B000F70181819281A381B48189839A83AB835A
:1029C000BC83112361F089819A81AB81BC818093A2
:1029D000150290931602A0931702B09318028091EB
:1029E000150290911602A0911702B0911802F501FC
:1029F00080839183A283B383812F0F900F900F90D8
:102A00000F900F90DF91CF911F910F91FF90EF905A
:102A1000DF90CF90BF90AF9008950F931F93CF9307
:102A2000DF93EC018B0146E754E10E94EA1388230F
:102A300091F043EA53E1B801CE010E94EA138823E2
:102A400051F04BE254E1B801CE01DF91CF911F91DB
:102A50000F910C94EA1380E0DF91CF911F910F91B9
:102A600008950F931F93CF93DF93F894C09156016D
:102A7000D0915701CE01019624E0FB01DC010190C9
:102A80000D922A95E1F764E070E00E94A81D88830A
:102A90007894F8946D817E818F81988500911102E0
:102AA00010911202209113023091140260177107E5
:102AB0008207930751F06093110270931202809382
:102AC0001302909314020E94AE227894F89488899D
:102AD000882331F060E0CE0109960E94681B188AB5
:102AE0007894DF91CF911F910F9108950E94EF226A
:102AF0000E94FE240E9417250E9429250E944C0E48
:102B0000FBCFEF92FF920F931F93CF93DF938B0135
:102B1000682F11110AC0442329F0E82FF0E0ED5A84
:102B2000FC4F6491762F862F75C0212F30E0E82F5F
:102B3000F0E0442321F0ED5AFC4FE491F0E046E050
:102B4000049FC0011124CFEFD0E0BE010E94602A93
:102B50004BEA4603C001479F900D1124800F911D41
:102B6000800F911D982F990F890FAE01421B530BB7
:102B70004E9FD0014F9FB00D5E9FB00D11249B2F33
:102B8000189FA0011124452F55278E01041B150BFA
:102B90000E9FA0010F9F500D1E9F500D11247E010E
:102BA000E81AF108E29E8001E39E100DF29E100DDE
:102BB0001124212F3327C21BD30BCE9F9001CF9F0F
:102BC000300DDE9F300D112462307105A9F048F4FC
:102BD0006115710569F061307105C9F48B2F752F8E
:102BE0000DC06430710581F058F06630710579F4DC
:102BF0007E2F8B2F932F0DC0832F7B2F9E2F09C0ED
:102C00008E2F7B2F952F05C08E2F732F02C07E2F06
:102C1000852F692FDF91CF911F910F91FF90EF903A
:102C2000089541E00E94811508950895EEE2F1E0D3
:102C30008083618308950E9411160895CF93DF93D6
:102C4000762FE901682F842F0E941B1679836883F1
:102C50008A83DF91CF91089580916002282F269575
:102C600030E02115310519F48170826005C02532EC
:102C7000310524F08170886480936002089588E0B3
:102C800090E00C94182BCF92DF92EF92FF926B01A1
:102C90007C010E942C16B701A60188E090E0FF900D
:102CA000EF90DF90CF900C94362BE0E6F2E083E0DB
:102CB000808311828FEF828383831482A2E3B2E048
:102CC00012968C911297836012968C936081718119
:102CD000828193810C9443168091600280FF02C030
:102CE0008695089580E0089590916402933018F4D9
:102CF0009F5F90936402882351F06091600270910D
:102D0000610280916202909163020C9443160895CF
:102D100081E00C94741690916402992319F09150FB
:102D200090936402882351F0609160027091610277
:102D300080916202909163020C944316089581E0A1
:102D40000C948B1670E00C947C1D60912F01809187
:102D5000600280FF0AC080912E0123E0829FC001A3
:102D600011248B599D4F0C94A216809130019091A3
:102D70003101891780F7E82FF0E09F01220F331F00
:102D8000E20FF31FEB59FD4F1182108212828F5F09
:102D9000F0CF9091600290FF16C090913001209189
:102DA0003101921770F4E92FF0E0DF01AA0FBB1F89
:102DB000EA0FFB1FEB59FD4F8183608342839F5FC6
:102DC000F0CF0C94A5160895CF93DF9300D01F92F7
:102DD000CDB7DEB79091600290FF0AC09E012F5FD1
:102DE0003F4F0E941E164B8169818A810E94C9163D
:102DF0000F900F900F90DF91CF910895CF93DF93B5
:102E0000EC01EC81F0E0E25BFD4F4491E0E6F2E0A2
:102E1000628181810E94E4168C818F5F8C83DF91B7
:102E2000CF910895CF93DF93EC01E0E6F2E0438188
:102E300062818C810E94E4168C818F5F8C83DF918C
:102E4000CF9108950F931F93CF93DF9300D01F92DC
:102E5000CDB7DEB78C018091250281110AC09E0199
:102E60002F5F3F4F4FEF6FEF0E941E168A818093B6
:102E70002502F8018481813051F028F0823061F41C
:102E8000409125020AC08091250240E007C0609170
:102E9000250240E080E003C040E080E060E00E9466
:102EA000C916F801848190E0019663E070E00E9409
:102EB000742A84830F900F900F90DF91CF911F9110
:102EC0000F910895AF92BF92CF92DF92EF92FF924F
:102ED0000F931F93CF93DF9300D01F92CDB7DEB730
:102EE000182FF62E042FE22E9091600290FF7EC0E4
:102EF000E92FE695AE2FB0E0A85ABE4F8C91809393
:102F000032029E7F923061F49E012F5F3F4F812FEE
:102F10000E941E164B8169818A810E94C91643C096
:102F2000823019F4009163023EC0863019F410918A
:102F3000610239C08930D9F38931A9F5E9518E2F61
:102F40008170D82EE695F0E0E25BFC4FA590B4903E
:102F5000C12CBB2460913201C61618F52C2D30E02F
:102F6000A29EC001A39E900DB29E900D112470E010
:102F70000E94602A812FD11002C0860F01C0861BDB
:102F800090913001290F311DA901440F551F240FC5
:102F9000351F2B593D4F402F6F2D0E941E16C39495
:102FA000D9CF0E94A51680916102181308C08091A4
:102FB0006202F81204C080916302081729F0809120
:102FC000340282608093340210936102F0926202B4
:102FD00000936302EE2051F06091600270916102F3
:102FE00080916202909163020E9443160F900F90AD
:102FF0000F90DF91CF911F910F91FF90EF90DF9095
:10300000CF90BF90AF900895E0E6F2E09181282F35
:103010004381628188E0890F0C94621781E00C94EF
:103020000418E0E6F2E09181282F4381628188EF65
:10303000890F0C94621781E00C941118E0E6F2E01D
:10304000628121E1620F08F46FEF282F43818181B3
:103050000C94621781E00C941E18E0E6F2E06281A5
:1030600021E1621B08F460E0282F438181810C94E8
:10307000621781E00C942D18E0E6F2E0438121E133
:10308000420F08F44FEF282F628181810C94621760
:1030900081E00C943C18E0E6F2E0438121E1421B20
:1030A00008F440E0282F628181810C94621781E04E
:1030B0000C944B1820E00C946217FF920F931F930F
:1030C000CF93DF93EC01F12C0FEF10E06091320110
:1030D000F616F0F4809130012F2D30E0280F311DCD
:1030E000C901880F991F280F391F2B593D4F70E0D8
:1030F000C8010E94742A962F8C81409163026091CE
:103100006202F99E800D11240E941E16F394DECFF8
:103110000E94A5169A818C8190FF02C08F5F01C02A
:1031200081508C83DF91CF911F910F91FF90089573
:103130008F929F92AF92BF92CF92DF92EF92FF92C7
:103140000F931F93CF93DF93EC018A8180FF03C01D
:10315000BB24BA9402C0BB24B3948C8181110DC0EE
:1031600081E0B81206C0809132018150809327021D
:1031700002C01092270281E08C83A12C4CE0942E97
:1031800080913201A81608F044C080913001CA2C09
:10319000D12C8601080F111DC801880F991F080F37
:1031A000191F0B591D4FF80111821082128234E051
:1031B000E32EF12C812C80912702880D8D302CF08C
:1031C000692D0E94522A892F05C087FF03C0909164
:1031D0003201890F082E000C990BC816D90691F4FC
:1031E000809163028E9DA0018F9D500D11245595F5
:1031F00047955595479598016091620280916102CB
:103200000E941E168B0CF1E0EF1AF108A1F6A394B0
:10321000B7CF0E94A5168091270291E0B9120EC087
:10322000811107C0809132018150809327021C8256
:103230000FC0815080932702BC820AC090E00196A3
:103240006091320170E00E94742A809327028C837F
:10325000DF91CF911F910F91FF90EF90DF90CF9072
:10326000BF90AF909F908F9008951F93CF93DF935F
:10327000EC018C81811109C081E08C8310922602BF
:1032800092E090932D0180932C01809130019091D8
:103290003101891770F4E82FF0E09F01220F331FEE
:1032A000E20FF31FEB59FD4F1182108212828F5FE4
:1032B000F0CF10E0609132011617C0F5E12FF0E079
:1032C00070E0CF010E94742A20913001820F20917A
:1032D0002602022E000C330B90E0E217F307CCF02D
:1032E00020912D01022E000C330B2E173F078CF07E
:1032F0009C01220F331F820F931F9C012B593D4FBE
:103300004091630260916202809161020E941E16E8
:103310000BC0FC01EE0FFF1F8E0F9F1FFC01EB592E
:10332000FD4F1182108212821F5FC4CF0E94A5162A
:1033300080912C0120912602280F20932602909143
:103340002D01980F90932D0119165CF4022E000C9C
:10335000330B4091320150E0415051092417350799
:1033600034F0819580932C01813009F41C82DF9127
:10337000CF911F9108958F929F92AF92BF92CF925B
:10338000DF92EF92FF920F931F93CF93DF938C0105
:10339000FC014481C42FD0E09E01DE010E94B82AC6
:1033A0009B01AC010E94CE2A6B017C01E0E2F0E0BF
:1033B000EC1BFD0BA5E5B0E09B01AC010E94CE2A01
:1033C0004B015C019F01DF010E94B02A9B01AC010F
:1033D0000E94D92A9B01AC012C0D3D1D4E1D5F1D85
:1033E000C501B4010E94882AC22FD22F2A3228F4A4
:1033F000F3E02F9F900111240DC025E530E02C1B38
:103400003109C901880F991F280F391F37FF02C0E2
:103410002F5F3F4F35952795C22FC095F12C85E53D
:10342000E82EED1A80913201F816C8F4F1FC02C0C2
:103430008E2D01C08D2F909130012F2D30E0290F5E
:10344000311DA901440F551F240F351F2B593D4F26
:103450004C2F609162020E941E16F394E3CF0E94EB
:10346000A516F8018481811102C091E003C0803269
:1034700019F49FEF90932B0190912B01890FF80184
:103480008483DF91CF911F910F91FF90EF90DF9098
:10349000CF90BF90AF909F908F9008950F931F9300
:1034A000CF93DF93EC0100E010E080913201282FF0
:1034B00030E00217130724F5909130019801290F8D
:1034C000311DA901440F551F240F351F2B593D4FA6
:1034D000869590E04C81081719071CF4442331F0BD
:1034E00002C0411103C04091630201C040E06091FD
:1034F0006202809161020E941E160F5F1F4FD5CF9E
:103500000E94A5168C8190E00196817099278C838A
:10351000DF91CF911F910F91089510923402089579
:1035200025E0E0E6F2E0DC0101900D922A95E1F75A
:10353000209132023091330240913402FC01258304
:1035400036834783089560916002669570E04BE092
:1035500050E083E391E00E94ED2A892B19F481E089
:10356000809333020E94E62290932C0280932B02D8
:10357000809134028460809334020895E2E3F2E0A3
:10358000118282818460828308959091600290FF0D
:103590003AC09170811102C0926006C0853210F06D
:1035A000986402C0880F982B909360028091340237
:1035B000816080933402662351F0609160027091C3
:1035C000610280916202909163020E9443166091B1
:1035D0006002669570E04BE050E083E391E00E946A
:1035E000ED2A892B19F00E94BE1A02C00E94A31A6C
:1035F00081E080932E02409163026091620280918B
:1036000061020C945A180895682F90916002969563
:1036100081E0890F853208F081E00C94C51A81E0C1
:103620000C94041B682F9091600296958FEF890F80
:1036300009F484E20C94C51A81E00C94121B61E039
:103640000C94C51AE0E6F2E0808181608083869563
:103650000C941F1B60E00C94C51AE0E6F2E0808138
:103660008E7F808360817181828193810E94431665
:103670000E94BE1AE2E3F2E08281816082832FEF32
:1036800080E792E0215080409040E1F700C00000C8
:103690000C94A5168091600280FD0C942D1B0C9457
:1036A000221BE0E6F2E080818E7F80830E94BE1ABA
:1036B000E2E3F2E08281816082832FEF80E792E093
:1036C000215080409040E1F700C000000C94A51606
:1036D0001F93CF93DF93EC01162F8F8180FF0FC0D4
:1036E000888180FF0AC080916002816080936002BF
:1036F000888186950E94C51A02C00E94511B8F8145
:1037000081FF06C0212F4B816A8189810E94621747
:103710008F8182FF08C08E81882319F00E94A31A2E
:1037200002C00E94BE1A8F8183FF03C081E0809394
:103730002E02DF91CF911F91089580913102811166
:1037400033C00E94600D811104C00E94080E0E94C7
:1037500055160E943F166093600270936102809339
:1037600062029093630280913402836080933402FA
:103770006E7F61F40E9455160E943F1660936002AE
:103780007093610280936202909363020E942C16F0
:103790000E94BE1A8091600280FF03C086950E943D
:1037A0002A1B81E0809331020895EF92FF920F93DC
:1037B0001F93CF93DF9380913302882309F4ABC02A
:1037C00080913202E0916002E695E81BE0932D02C1
:1037D000823049F4F0E0E65BFD4FE491CE2FD0E07B
:1037E0000EEF16E149C0863049F4F0E0E95BFD4F89
:1037F000E491CE2FD0E002E117E13EC0893051F4D0
:10380000E695F0E0EC5BFD4FE491CE2FD0E00DE5C6
:1038100018E132C08F3051F4E695F0E0EF5BFD4FD8
:10382000E491CE2FD0E008E918E126C0853149F4B3
:10383000F0E0E25CFD4FE491CE2FD0E005E319E12A
:103840001BC0883181F0833239F4ECE3F2E0C5919A
:10385000D49102E217E110C0843251F4C4EFD1E0F8
:103860000EE41AE109C0C8E2D0E00BEB19E104C094
:10387000C0EDD7E005E116E180912E02882361F0CA
:1038800010922E020E94E62290932C0280932B022B
:103890001092300210922F020E94E622E0912B0239
:1038A000F0912C029C012E1B3F0B2F3F3F4798F5B8
:1038B00020912A022223B1F010922A02209128029C
:1038C00030912902821B930B8F3F9F4758F4205D54
:1038D0003A4830932902209328028091340288606C
:1038E00080933402E0902F02F0903002EC0FFD1F25
:1038F000F0932C02E0932B028BE292E0F801099501
:1039000080912F0290913002892B29F4EF2819F031
:1039100081E080932A02DF91CF911F910F91FF9058
:10392000EF900895882311F0FA0101C0FB0109947A
:10393000CF93DF93C82FD62F0E946C168C1740F0C0
:103940000E946C168D1720F4DF91CF910C940F1B01
:103950008C2FDF91CF910C941F1B1F93CF93DF937C
:10396000FB0112811111C3C0EC010E94A10C8272F3
:10397000CD3CFCE5DF0709F49AC0A8F5C73CECE5AF
:10398000DE0709F476C0A8F4C43C9CE5D90709F425
:103990005FC028F4C33CDC4509F457C054C0C53CA3
:1039A0009CE5D90709F459C0C63CDC4509F45CC064
:1039B0004AC0CA3CFCE5DF0709F46AC050F4C83CC1
:1039C000ECE5DE0709F45AC0C93CDC4509F45BC0EC
:1039D0003AC0CB3C9CE5D90709F45FC0CC3CDC4540
:1039E00009F460C030C0C23DFCE5DF0709F46FC0D8
:1039F00088F4CF3C9CE5D90709F460C008F45CC0AA
:103A0000C03DFCE5DF0709F45CC0C13DDC4509F4BD
:103A10005BC019C0C53D9CE5D90709F460C050F4EE
:103A2000C33DFCE5DF0709F455C0C43DDC4509F49E
:103A300054C009C0C63D9CE5D90709F455C0CE3530
:103A4000DD4509F454C011E052C00E944A1B4FC02A
:103A50004CE15BE16FE07BE104C04FE05BE16CE1D6
:103A60007BE10E94921C43C04BE158E16EE078E19B
:103A7000F8CF4EE058E16BE178E1F3CF49E358E14C
:103A80006AE278E1EECF4AE258E169E378E1E9CF12
:103A900047E558E168E478E1E4CF48E458E167E5B8
:103AA00078E1DFCF4FE956E168E876E1DACF48E820
:103AB00056E16FE976E1D5CF81E017C065E082E09D
:103AC00010C068E086E00DC06EE089E00AC064E1E5
:103AD0008FE007C067E185E104C088E106C062E2CB
:103AE00089E10E94981C03C083E20E941F1B812F62
:103AF000DF91CF911F910895539A2BB1277F3BB14E
:103B000038604FB7F894FC01CB01880F991F680FFC
:103B1000791F6E0F7F1FE617F70789F0819198E0F4
:103B20003BB9000000C087FF2BB9880F000000C020
:103B300000C000C02BB900C09A9591F7ECCF4FBFE1
:103B40008FE594E00197F1F700C000000895089513
:103B5000FC01680F791F8FEF91E3E617F70771F00B
:103B60002191822728E030E087FF03C0880F892752
:103B700001C0880F21503109B9F7EFCF08950F9395
:103B80001F93CF93DF93C42FD22FFC018281882310
:103B9000C9F0409337020E947723909336028093B6
:103BA000350280E28C0F883008F057C0C77081E082
:103BB00001C0880FCA95EAF7DF91CF911F910F914D
:103BC0000C94690480913702481330C0809135020B
:103BD000909136020E948F23883C910538F510E2BF
:103BE0001D0FCD17B9F080E28C0F883040F4C770FC
:103BF00081E001C0880FCA95EAF70E94700418306E
:103C000028F581E09D2F977001C0880F9A95EAF7FB
:103C10000E946904802F0E9460041830F0F4D7706D
:103C200081E001C0880FDA95EAF70AC080E28C0FC4
:103C3000883098F4C77081E001C0880FCA95EAF710
:103C4000DF91CF911F910F910C947004802FDF9121
:103C5000CF911F910F910C946004DF91CF911F9130
:103C60000F9108950F939C01CB01243F4CE534073D
:103C700031F188F4293DFCE53F07D9F02A3D4CE5B8
:103C8000340779F1283D3C45A9F506E221EE41EEE5
:103C900068ED7CE52BC0263FFCE53F07E1F0A8F08E
:103CA000273F3C4539F507E225EE46EE67EF7CE518
:103CB0001DC007E225EE45EE69ED7CE517C006E282
:103CC00021EE40EE64EF7CE511C007E225EE44EE04
:103CD00065EF7CE50BC006E221EE42EE66EF7CE587
:103CE00005C008E221E045EE6AED7CE50E94BF1DBB
:103CF00080E008C0FC018281882319F0109237020D
:103D000001C081E00F910895CF93DF93EC01FB0197
:103D10008281882309F426C1C430FDE5DF0760F401
:103D2000CB3F9CE5D90768F49E0122503C452431E5
:103D3000310508F018C105C0C236EDE5DE0709F00F
:103D400012C10E94730D90934C0280934B02C031BC
:103D5000FCE5DF0709F4CAC008F041C0C8309CE5A3
:103D6000D90709F4A4C0F0F4C430FCE5DF0709F476
:103D70008CC068F4C2309CE5D90709F482C0C33016
:103D8000DC4509F0E5C080914B028260DFC0C6309F
:103D9000FCE5DF0709F483C008F085C080914B0281
:103DA0008860D4C0CC309CE5D90709F490C068F491
:103DB000CA30FCE5DF0709F47EC008F084C00E9429
:103DC000BB0680914B028068C1C0CE309CE5D9070C
:103DD00009F481C008F086C080914B0294C0CD3FA9
:103DE000FCE5DF0709F47BC038F5C4319CE5D90751
:103DF00009F49AC058F4C231FCE5DF0709F47AC02F
:103E000008F07EC080914B028F7BA0C0CB3F9CE529
:103E1000D907F1F108F03FC0C531DC4509F098C081
:103E200080914B0282FB222720F991E0922790FBA0
:103E300082F990FB83F98AC0C1308DE5D80709F477
:103E400067C050F480914C02CF3FECE5DE07C1F132
:103E500008F05BC08D7F65C0C3308DE5D80709F4DD
:103E600071C008F46DC0C236DD4509F071C08091A3
:103E70004B0284FB222720F991E0922790FB84F9E2
:103E800065C080914B02816061C080914B0216C079
:103E900080914C0216C080914C02826042C0809199
:103EA0004B02806153C080914B0280624FC0809171
:103EB0004B0280644BC080914B028860846046C096
:103EC000826081602EC080914B028E7F3FC08091C6
:103ED0004B028D7F3BC080914B02877F37C0809122
:103EE0004C0214C080914B028F7E30C080914B02F7
:103EF0008F7D2CC00E94BB0680914B028F7726C01D
:103F000080914B02877F8B7F21C08D7F8E7F09C080
:103F100080914C02982F909591708E7F892B90FB09
:103F200081F980934C0214C00E94BB0680914B0221
:103F300087FB222720F991E0922790FB87F906C0A2
:103F400081E001C080E00E94140E02C080934B0209
:103F500080914B0290914C020E94840D0E94BB06FE
:103F600080E001C081E0DF91CF910895CF93DF938E
:103F700086319C4541F5EB010E94A10C982F8A8166
:103F80002091000130910101882379F09A7A81E033
:103F900009F480E080933802911102C069E201C007
:103FA00065E3C9010E949A220AC0809138028111FA
:103FB00002C069E201C065E3C9010E949C220E941F
:103FC000F30C80E001C081E0DF91CF9108958EE194
:103FD0004A9B02C08150E1F74A9BFECF08955A9850
:103FE00080E28A95F1F75A9A0895FC012AE02A9511
:103FF000F1F728E090E080E031E040E14A95F1F708
:10400000880F4A9B02C08160932700C0000040E1F6
:104010004A95F1F7215089F720E12A95F1F729B166
:1040200000C0000030E13A95F1F722FB222720F989
:1040300092272081920F90830895EF92FF920F9321
:104040001F93CF93DF931F92CDB7DEB719828C01F8
:104050007C01E60EF11C0E151F0551F00E94E71FB2
:10406000CE0101960E94F51FF80181938F01F3CFD5
:1040700081E09981911180E00F90DF91CF911F91A4
:104080000F91FF90EF900895529A5A9A089552987E
:104090005A9AEA9AE9E6F0E080818F7C808308955D
:1040A000615091E001C0990F6A95EAF720E031E094
:1040B000992361F0492F482319F05A9A232701C008
:1040C0005A9840E24A95F1F79695F2CF222311F0E3
:1040D0005A9A01C05A9880E28A95F1F75A98089541
:1040E000FF920F931F93CF93DF93EC018C01060F88
:1040F000111DC017D10741F0F9900E94EF1F68E031
:104100008F2D0E945020F5CFDF91CF911F910F91FD
:10411000FF9008951F920F920FB60F921124EF9205
:10412000FF920F931F932F933F934F935F936F9340
:104130007F938F939F93AF93BF93EF93FF93CF930F
:10414000DF931F92CDB7DEB719820E94E71FCE0121
:1041500001960E94F51FA82FA695A695A6959A2FC1
:10416000969595702A2F2570920F292F237096957A
:104170009695920F877089137CC08981811179C0CF
:10418000A53008F076C080E18A95F1F75A9A529AE4
:10419000B2E0BA95F1F700C05A98EA2EF12CEAE0A5
:1041A000AE9FD0011124AD5FBE4F1896ED91FC91EA
:1041B00019973097B1F0609156017091570116969A
:1041C0002D913C911797260F371F13968D919C9137
:1041D0001497680F791F15964C91159712968C912C
:1041E00009958AE08E9DF0018F9DF00D1124ED5F01
:1041F000FE4F6581662351F08091560190915701E1
:1042000026813781820F931F0E9470200E94EF1F2A
:10421000F0E1FA95F1F75A9852985A9A80E18A9506
:10422000F1F78AE08E9D80018F9D100D11240D5FA6
:104230001E4FD80112966C911297662399F08091C7
:1042400056019091570113962D913C911497820F2E
:10425000931F0E941D20D801ED91FC91811105C092
:1042600082E004C0D801ED91FC9188E080830E9437
:10427000E71F0F90DF91CF91FF91EF91BF91AF9129
:104280009F918F917F916F915F914F913F912F916E
:104290001F910F91FF90EF900F900FBE0F901F9006
:1042A00018950F931F93CF93DF93853091050CF0F2
:1042B000A9C02AE0289FF001299FF00D1124ED5F8D
:1042C000FE4F20813181232B09F49CC0EC01F8942E
:1042D000529A5A9885E08A95F1F700008C2F8695BE
:1042E00085709C2F9570890F982F93708695869571
:1042F0008E0123E0000F111F2A95E1F7890F082B8B
:104300000E94EF1FA4E0AA95F1F700C068E0802F9B
:104310000E945020B0E1BA95F1F752985A9A4A9902
:1043200002C000C0FCCF87E090E04A9B17C0019715
:1043300099F4529A5A9A8AE08C9FF0018D9FF00D61
:104340001124ED5FFE4F0190F081E02D81E080832C
:10435000789481E090E058C000C0E7CF8AE08C9F5D
:1043600080018D9F100D11240D5F1E4FF801658196
:104370006623B9F0809156019091570126813781CB
:10438000820F931F0E941D2081110BC0529A5A9ACE
:10439000D801ED91FC9182E08083789482E090E0F6
:1043A00033C00E94E71FB0E2BA95F1F75A98529ACB
:1043B000E0E1EA95F1F78AE08C9FF0018D9FF00D26
:1043C0001124ED5FFE4F6281662351F0809156010A
:1043D0009091570123813481820F931F0E94702096
:1043E0000E94EF1F8AE08C9FF0018D9FF00D112439
:1043F000ED5FFE4F0190F081E02D1082789480E017
:1044000090E002C084E090E0DF91CF911F910F9186
:10441000089590933F0280933E0208950E94D71220
:10442000811103C0809139020895E0913E02F0911C
:104430003F02309721F00190F081E02D099480E057
:104440000895E0913E02F0913F02309721F0028002
:10445000F381E02D0994089520913C0230913D02B2
:104460002817390771F090933D0280933C02E09148
:104470003E02F0913F02309721F00680F781E02D57
:104480000994089520913A0230913B022817390788
:1044900071F090933B0280933A02E0913E02F091DA
:1044A0003F02309721F00084F185E02D09940895B2
:1044B000FC01329697E080E0915029F0219122236F
:1044C000D9F38F5FF9CF0895662349F0FC01329646
:1044D00008962191621729F0E817F907D1F780E0D3
:1044E000089581E008959C01FC0132969FEF80E0E1
:1044F0004191461789F09F3F19F4411101C0982F4F
:104500008F5F8630A9F79F3F39F0F901E90FF11D60
:1045100097FDFA956283089508959C012A5F3F4FA5
:10452000FC014281461301C0128201968217930753
:10453000B9F708950C9473220C948D22029626E00C
:10454000FC0111922A95E9F70895109289021092C0
:104550008A0210928B0210928C020895CF92DF9201
:10456000EF92FF926B017C010E94D71281110EC065
:104570000E948323C61AD70AE80AF90AC092890260
:10458000D0928A02E0928B02F0928C02FF90EF9020
:10459000DF90CF9008950F931F930E94D712882326
:1045A00021F01F910F910C9483230E94832300918B
:1045B000890210918A0220918B0230918C02600F47
:1045C000711F821F931F1F910F9108950E94D71290
:1045D00081110C9477230E94CB22CB01089508957A
:1045E00008950C94F0220C94F022CF930E94F322B1
:1045F0000E944A120E94F122C0E08C2F0E941911E1
:10460000811104C0CF5FC830C1F701C081E0CF91F4
:1046100008950C94F0220C94092380919502843023
:1046200049F10E940B2380E00E9491031092400206
:1046300020E488E190E00FB6F894A895809360009C
:104640000FBE2093600083B7817F846083BF83B7F0
:10465000816083BF7894889583B78E7F83BF0FB6C0
:10466000F894A89580916000886180936000109212
:1046700060000FBE08950C94F0220E94BB060E94B9
:104680000E220E9491030C943B231F920F920FB6AF
:104690000F9211248F939F93AF93BF938091400209
:1046A000811113C080918D0290918E02A0918F0292
:1046B000B09190024196A11DB11D80938D029093FF
:1046C0008E02A0938F02B0939002BF91AF919F9101
:1046D0008F910F900FBE0F901F90189582E084BDB0
:1046E00093E095BD9AEF97BD80936E0008952FB724
:1046F000F89480918D0290918E02A0918F02B091DA
:1047000090022FBF08952FB7F89460918D02709199
:104710008E0280918F02909190022FBF08959C018C
:104720004FB7F89480918D0290918E02A0918F02E4
:10473000B09190024FBF821B930B0895CF92DF92EE
:10474000EF92FF922FB7F894C0908D02D0908E0216
:10475000E0908F02F09090022FBFA7019601261BD8
:10476000370B480B590BCA01B901FF90EF90DF904E
:10477000CF90089578941F920F920FB60F92112444
:104780008F939F93AF93BF9380918D0290918E02F0
:10479000A0918F02B09190020196A11DB11D80934E
:1047A0008D0290938E02A0938F02B0939002BF91DE
:1047B000AF919F918F910F900FBE0F901F90189502
:1047C00087E797E790930108809300089AE088E1D3
:1047D0000FB6F894A895809360000FBE9093600088
:1047E000FFCF90937F0180937E01089580914902CD
:1047F00008950895CF93DF9321E02093E9002FEFF0
:104800003091E800215035FD06C035ED3A95F1F7BD
:1048100000002111F5CF2091E80025FF14C0EC0124
:1048200040E050E068E070E00E94A2258091E8003E
:104830008E778093E80088E0FE01A1E4B2E0019069
:104840000D928A95E1F7DF91CF910895089508952B
:1048500080919402811109C00E9433270E94902701
:104860008091E20084608093E200089510929402A7
:10487000089508950895089542E061EC81E00C9454
:10488000AC2680919702833009F460C030F4813007
:1048900071F0823009F499C008958A3009F485C016
:1048A0008B3009F46BC0893009F0A7C020C080911B
:1048B0009602813A09F0A1C08091E800877F809339
:1048C000E80080919A0290919B02892B21F468E084
:1048D00081E492E003C060E080E090E070E00E943C
:1048E000ED258091E8008B778093E8000895809112
:1048F0009602813209F081C080919A0290919B02C8
:10490000892B09F07AC08091E800877F8093E800C6
:104910008091E80082FD05C0809195028111F8CF59
:104920006CC02091F3008091F20090E0922B0297EE
:1049300029F48091F1008B7F813021F48091F10086
:10494000809349028091E8008B7753C08091960252
:10495000813A09F052C080919A0290919B02892B72
:1049600009F04BC08091E800877F8093E800809138
:10497000E80080FFFCCF8091480136C0809196020C
:104980008132D9F580919A0290919B02892BA9F5E9
:104990008091E800877F8093E8000E94E126809163
:1049A0009802809348010C94BB0680919602813254
:1049B00021F58091E800877F8093E8000E94E1263E
:1049C0008091990280934A02089580919602813ADB
:1049D000A1F48091E800877F8093E8008091E8004F
:1049E00080FFFCCF80914A028093F1008091E80023
:1049F0008E778093E8000C94E126089584B7877F32
:104A000084BF0FB6F894A895809160008861809368
:104A10006000109260000FBE90E080E80FB6F8943E
:104A200080936100909361000FBE0C94420E0E942F
:104A300033270E949027E2EEF0E08081846080833B
:104A400078940E94252A0E94500E8EE391E00C94E7
:104A50000922809195028530A9F4809195028530D4
:104A600079F40E940D23809193028823B1F30E9470
:104A7000F522882391F30E948C250E94BB06EDCF7E
:104A80000E943D230C945C0E0C944625292F33275D
:104A900023303105C1F058F42130310579F022304E
:104AA000310591F582E290E025E834E031C0213211
:104AB0003105E1F02232310501F126C082E190E0BA
:104AC00027EA34E025C099278130910549F028F084
:104AD0000297D1F4E3E5F4E005C0E1E8F4E002C0B8
:104AE000E7E6F4E0849190E09F0112C0672B61F447
:104AF00089E090E027E934E00BC0672B29F480E4DB
:104B000090E029EB34E004C080E090E020E030E069
:104B1000FA0131832083089580E189BD82E189BD56
:104B200009B400FEFDCF8091D8008F7D8093D8001E
:104B30008091E00082608093E0008091E00081FD40
:104B4000FCCF0895CF92DF92EF92FF920F931F93C5
:104B5000CF93DF93EC018B017A010E940027811132
:104B600033C0E114F10439F0F70180819181081B11
:104B7000190BC80FD91FC12CD12C0115110519F122
:104B80008091E80085FD16C08091E8008E778093C3
:104B9000E800E114F10449F0F70180819181C80E29
:104BA000D91ED182C08285E00FC00E9400278823D1
:104BB00021F30AC089918093F10001501109FFEFA0
:104BC000CF1ADF0ADACF80E0DF91CF911F910F91EA
:104BD000FF90EF90DF90CF90089520919C0230914C
:104BE0009D022617370748F06115710539F42091A9
:104BF000E8002E772093E80001C0B901FC0120E015
:104C00006115710579F1809195028823F1F1853064
:104C1000F1F18091E80083FD3CC08091E80082FDC5
:104C20002EC08091E80080FFEBCF2091F3008091AF
:104C3000F20090E0922B6115710551F088309105DA
:104C400038F421912093F100615071090196F3CF5E
:104C500021E0089709F020E08091E8008E778093AA
:104C6000E800CECF2111CFCF0AC0809195028823D2
:104C700061F0853061F08091E80083FD0AC0809189
:104C8000E80082FFF2CF80E0089582E0089583E09B
:104C9000089581E0089520919C0230919D0226178D
:104CA000370748F06115710539F42091E8002E7737
:104CB0002093E80001C0B901FC0120E061157105F5
:104CC00091F180919502882309F440C0853009F460
:104CD0003FC08091E80083FD3DC08091E80082FDE7
:104CE0002FC08091E80080FFE9CF2091F3008091F0
:104CF000F20090E0922B6115710559F08830910512
:104D000040F424912093F10031966150710901968D
:104D1000F2CF21E0089709F020E08091E8008E773B
:104D20008093E800CBCF2111CCCF0AC080919502AF
:104D3000882361F0853061F08091E80083FD0AC02E
:104D40008091E80082FFF2CF80E0089582E008952C
:104D500083E0089581E00895982F973068F5909347
:104D6000E900981739F07091EC002091ED00509116
:104D7000F00003C0242F762F50E021FD02C09F5F7A
:104D8000ECCF3091EB003E7F3093EB003091ED00A3
:104D90003D7F3093ED003091EB0031603093EB00BC
:104DA0007093EC002093ED005093F0002091EE0002
:104DB00027FDE5CF80E008958F708093E90081E0C2
:104DC00008958091960287FF11C08091E80082FDCE
:104DD00005C0809195028111F8CF11C08091E80043
:104DE0008B770BC080919502882349F08091E80071
:104DF00080FFF8CF8091E8008E778093E8000895D7
:104E00002091E4003091E50095E64091EC00842F7C
:104E1000817040FF23C08091E80080FD1DC080911B
:104E20009502882399F0853099F08091EB0085FDFB
:104E300011C04091E4005091E5002417350729F393
:104E4000915011F09A01E1CF84E0089582E0089535
:104E500083E0089581E0089580E008954091E8009E
:104E600042FFDDCF08950E94A1270E94A927E0EE0E
:104E7000F0E0808181608083E8EDF0E080818F77D1
:104E8000808319BCA7EDB0E08C918E7F8C938081DC
:104E90008F7E80831092940208950F931F93CF9377
:104EA000DF930E94A1270E94A927C8EDD0E0888146
:104EB0008F77888388818068888388818F7D8883C5
:104EC00019BC1092950210929102109293021092C6
:104ED000920200EE10E0F80180818B7F8083888150
:104EE0008160888342E060E080E00E94AC26E1EED1
:104EF000F0E080818E7F8083E2EEF0E0808181604F
:104F00008083808188608083F80180818E7F8083A8
:104F1000888180618883DF91CF911F910F910895DF
:104F2000E8EDF0E080818F7E8083E7EDF0E0808126
:104F30008160808384E082BF81E0809394020C943E
:104F40004D27E8EDF0E080818E7F80831092E200B3
:104F500008951092DA001092E10008951F920F92C6
:104F60000FB60F9211242F933F934F935F936F933C
:104F70007F938F939F93AF93BF93EF93FF93809112
:104F8000E10082FF0BC08091E20082FF07C08091A8
:104F9000E1008B7F8093E1000E94242A8091DA0057
:104FA00080FF1FC08091D80080FF1BC08091DA0075
:104FB0008E7F8093DA008091D90080FF0DC080E160
:104FC00089BD82E189BD09B400FEFDCF81E08093F7
:104FD00095020E94282405C019BC109295020E94D7
:104FE00036248091E10080FF19C08091E20080FFAB
:104FF00015C08091E2008E7F8093E2008091E200F4
:1050000080618093E2008091D80080628093D80014
:1050100019BC85E0809395020E943A248091E100BA
:1050200084FF30C08091E20084FF2CC080E189BD04
:1050300082E189BD09B400FEFDCF8091D8008F7D4B
:105040008093D8008091E1008F7E8093E100809171
:10505000E2008F7E8093E2008091E2008160809385
:10506000E20080919102882311F084E007C08091D2
:10507000E30087FD02C081E001C083E080939502D8
:105080000E943B248091E10083FF29C08091E200CF
:1050900083FF25C08091E100877F8093E10082E05B
:1050A00080939502109291028091E1008E7F80930F
:1050B000E1008091E2008E7F8093E2008091E20027
:1050C00080618093E20042E060E080E00E94AC26D4
:1050D0008091F00088608093F0000E943924FF9155
:1050E000EF91BF91AF919F918F917F916F915F9160
:1050F0004F913F912F910F900FBE0F901F901895D9
:105100001F920F920FB60F9211242F933F934F933C
:105110005F936F937F938F939F93AF93BF93CF933F
:10512000DF93EF93FF93C091E900CF708091EC0083
:10513000D82FD17080FDD0E81092E9008091F00066
:10514000877F8093F00078940E94C4281092E90031
:105150008091F00088608093F000CD2BCF70C093D9
:10516000E900FF91EF91DF91CF91BF91AF919F91B6
:105170008F917F916F915F914F913F912F910F9000
:105180000FBE0F901F9018951F93CF93DF93CDB74D
:10519000DEB7AA970FB6F894DEBF0FBECDBFE6E923
:1051A000F2E08091F100819322E0EE39F207C9F735
:1051B0000E9441248091E80083FF2EC180919602D5
:1051C00090919702492F50E04A30510508F024C1D0
:1051D000FA01EC58FF4F0C94AA2A803821F082384B
:1051E00009F01AC108C0809192029091930299230C
:1051F00089F082600FC080919A028F70873008F02A
:105200000BC18093E9008091EB0085FB882780F932
:105210001092E9009091E800977F9093E8008093C6
:10522000F1001092F100D1C0282F2D7F09F0F4C0B9
:10523000882319F0823061F0EFC0809198028130AC
:1052400009F0EAC0933009F080E0809393022EC009
:105250008091980281112AC080919A028F702FEF5D
:10526000280F263008F0D8C08093E9002091EB0089
:1052700020FF1CC0933021F48091EB00806214C0A9
:105280009091EB0090619093EB0021E030E0A90158
:1052900002C0440F551F8A95E2F74093EA0010922E
:1052A000EA008091EB0088608093EB001092E900A7
:1052B0008091E800877F8093E8000E94E126ACC0DF
:1052C0008111AAC0109198021F778091E300807825
:1052D000812B8093E3008091E800877F8093E80032
:1052E0000E94E1268091E80080FFFCCF8091E300DE
:1052F00080688093E300111102C082E001C083E066
:105300008093950289C08058823008F085C08091D2
:105310009802909199028C3D53E0950779F583E0CE
:105320008A838AE289834FB7F894DE01139620E0DE
:105330003EE051E2E32FF0E050935700E49120FF6C
:1053400003C0E295EF703F5FEF708E2F90E0EA3080
:1053500010F0C79601C0C0968D939D932F5F2431A6
:1053600049F74FBF8091E800877F8093E8006AE2A9
:1053700070E0CE0101960E94ED2516C060919A0260
:1053800070919B02AE014F5F5F4F0E944425BC01AC
:10539000892B09F441C09091E800977F9093E80031
:1053A00089819A810E944B268091E8008B778093B7
:1053B000E80032C0803881F58091E800877F8093D3
:1053C000E800809191028093F1008091E8008E774F
:1053D00072CF811121C080919802909199029927F2
:1053E0000297D4F48091E800877F8093E800809151
:1053F0009802809391020E94E1268091910281118E
:1054000006C08091E30087FD02C081E001C084E016
:10541000809395020E943C248091E80083FF0AC09B
:105420008091E800877F8093E8008091EB008062A4
:105430008093EB00AA960FB6F894DEBF0FBECDBFE7
:10544000DF91CF911F9108950895CF938091950298
:105450008823A1F0C091E900CF709091EC00892FD2
:10546000817090FD80E8C82B1092E9008091E800DF
:1054700083FD0E94C428CF70C093E900CF910895A6
:105480000E943327109295020895E8EDF0E08081A4
:10549000806180838AE18A95F1F700C08091D9000C
:1054A0008170089587FB082E062687FD819567FD8C
:1054B00061950E94E12A0EF4919507FC819508956B
:1054C000AA1BBB1B51E107C0AA1FBB1FA617B7072A
:1054D00010F0A61BB70B881F991F5A95A9F7809546
:1054E0009095BC01CD01089597FB072E16F400940A
:1054F00007D077FD09D00E94602A07FC05D03EF452
:10550000909581959F4F0895709561957F4F08956F
:10551000A1E21A2EAA1BBB1BFD010DC0AA1FBB1FB7
:10552000EE1FFF1FA217B307E407F50720F0A21B29
:10553000B30BE40BF50B661F771F881F991F1A9496
:1055400069F760957095809590959B01AC01BD01C0
:10555000CF010895EE0FFF1F0590F491E02D0994FF
:105560000E94B82A332312F48A1B9B0B0C94C92A7D
:10557000A29FB001B39FC001A39F700D811D112494
:10558000911DB29F700D811D1124911D08950E94DF
:10559000B82AB7FF0895821B930B08950E94B82A7A
:1055A000A59F900DB49F900DA49F800D911D112477
:1055B0000895B7FF0C94CE2A0E94CE2A821B930B2B
:1055C0000895991B79E004C0991F961708F0961B5F
:1055D000881F7A95C9F780950895FC014150504085
:1055E00030F001900616D1F73197CF010895882742
:1055F00099270895FB01DC0104C08D910190801969
:1056000021F441505040C8F7881B990B0895FB01C5
:10561000DC0102C001900D9241505040D8F708952E
:10562000F999FECF92BD81BDF89A992780B508956A
:10563000A6E1B0E044E050E00C944A2BA8E1B0E0D1
:1056400042E050E00C944A2B262FF999FECF92BDF0
:1056500081BDF89A019700B4021639F01FBA20BD37
:105660000FB6F894FA9AF99A0FBE08950396272F69
:105670000E94252B0E94242B252F0E94252B242FAE
:105680000C94252B0196272F0E94252B0C94242B5C
:10569000DC01CB01FC01F999FECF06C0F2BDE1BDF2
:1056A000F89A319600B40D9241505040B8F70895E1
:0456B000F894FFCF9C
:1056B400DC01015F0200000001000000005F020045
:1056C400000004010000005F020405000000000067
:1056D400005F020809000000000000010102000C44
:1056E400000C0C01191A1B1C1D1E1F202122F6235D
:1056F400FA2326242724F92301F4F5F6F731323668
:105704003435000000000002000102020202060615
:10571400060909090909090F0F0F0F0F0F151515B0
:0E57240018191919191919191919192324001E
:00000001FF
